:020000040000fa
:080000000002040000000000f2
:020000040000fa
:04000800620300008f
:020000040000fa
:04000c00620300008b
:020000040000fa
:040010006203000087
:020000040000fa
:040014006203000083
:020000040000fa
:04001800620300007f
:020000040000fa
:04001c00620300007b
:020000040000fa
:040020006203000077
:020000040000fa
:040024006203000073
:020000040000fa
:04002800620300006f
:020000040000fa
:04002c00620300006b
:020000040000fa
:040030006203000067
:020000040000fa
:040034006203000063
:020000040000fa
:04003800620300005f
:020000040000fa
:04003c00620300005b
:020000040000fa
:040040006203000057
:020000040000fa
:040044001a0300009b
:020000040000fa
:04004800620300004f
:020000040000fa
:04004c00620300004b
:020000040000fa
:040050006203000047
:020000040000fa
:040054006203000043
:020000040000fa
:04005800620300003f
:020000040000fa
:04005c00620300003b
:020000040000fa
:040060006203000037
:020000040000fa
:040064006203000033
:020000040000fa
:04006800620300002f
:020000040000fa
:04006c00620300002b
:020000040000fa
:040070006203000027
:020000040000fa
:040074006203000023
:020000040000fa
:04007800620300001f
:020000040000fa
:04007c00620300001b
:020000040000fa
:040080006203000017
:020000040000fa
:040084006203000013
:020000040000fa
:04008800620300000f
:020000040000fa
:04008c00620300000b
:020000040000fa
:040090006203000007
:020000040000fa
:040094006203000003
:020000040000fa
:0400980062030000ff
:020000040000fa
:04009c0062030000fb
:020000040000fa
:0400a00062030000f7
:020000040000fa
:0400a40062030000f3
:020000040000fa
:0400a80062030000ef
:020000040000fa
:0400ac00fa02000054
:020000040000fa
:0400b00062030000e7
:020000040000fa
:0400b40062030000e3
:020000040000fa
:0400b80062030000df
:020000040000fa
:0400bc0062030000db
:020000040000fa
:0400c00062030000d7
:020000040000fa
:0400c40062030000d3
:020000040000fa
:0400c80062030000cf
:020000040000fa
:0400cc0062030000cb
:020000040000fa
:0400d00062030000c7
:020000040000fa
:0400d40062030000c3
:020000040000fa
:0400d80062030000bf
:020000040000fa
:0400dc0062030000bb
:020000040000fa
:0400e00062030000b7
:020000040000fa
:0400e40062030000b3
:020000040000fa
:0400e80062030000af
:020000040000fa
:0400ec0062030000ab
:020000040000fa
:0400f00062030000a7
:020000040000fa
:0400f40062030000a3
:020000040000fa
:0400f800620300009f
:020000040000fa
:0400fc00620300009b
:020000040000fa
:040100006203000096
:020000040000fa
:040104006203000092
:020000040000fa
:04010800620300008e
:020000040000fa
:04010c00620300008a
:020000040000fa
:040110006203000086
:020000040000fa
:040114006203000082
:020000040000fa
:04011800620300007e
:020000040000fa
:04011c00620300007a
:020000040000fa
:040120006203000076
:020000040000fa
:040124006203000072
:020000040000fa
:04012800620300006e
:020000040000fa
:04012c00620300006a
:020000040000fa
:040130006203000066
:020000040000fa
:040134006203000062
:020000040000fa
:04013800620300005e
:020000040000fa
:04013c00620300005a
:020000040000fa
:040140006203000056
:020000040000fa
:040144006203000052
:020000040000fa
:04014800620300004e
:020000040000fa
:04014c00620300004a
:020000040000fa
:040150006203000046
:020000040000fa
:040154006203000042
:020000040000fa
:04015800620300003e
:020000040000fa
:04015c00620300003a
:020000040000fa
:040160006203000036
:020000040000fa
:040164006203000032
:020000040000fa
:04016800620300002e
:020000040000fa
:04016c00620300002a
:020000040000fa
:040170006203000026
:020000040000fa
:040174006203000022
:020000040000fa
:04017800620300001e
:020000040000fa
:04017c00620300001a
:020000040000fa
:040180006203000016
:020000040000fa
:040184006203000012
:020000040000fa
:04018800620300000e
:020000040000fa
:04018c00620300000a
:020000040000fa
:040190006203000006
:020000040000fa
:040194006203000002
:020000040000fa
:0401980062030000fe
:020000040000fa
:04019c0062030000fa
:020000040000fa
:0401a00062030000f6
:020000040000fa
:0401a40062030000f2
:020000040000fa
:0401a80062030000ee
:020000040000fa
:0401ac0062030000ea
:020000040000fa
:0401b00062030000e6
:020000040000fa
:0401b40062030000e2
:020000040000fa
:0401b80062030000de
:020000040000fa
:0401bc0062030000da
:020000040000fa
:0401c00062030000d6
:020000040000fa
:0401c40062030000d2
:020000040000fa
:0401c80062030000ce
:020000040000fa
:0401cc0062030000ca
:020000040000fa
:0401d00062030000c6
:020000040000fa
:0401d40062030000c2
:020000040000fa
:0401d80062030000be
:020000040000fa
:0401dc0062030000ba
:020000040000fa
:0401e00062030000b6
:020000040000fa
:0401e40062030000b2
:020000040000fa
:0401e80062030000ae
:020000040000fa
:0401ec0062030000aa
:020000040000fa
:0401f00062030000a6
:020000040000fa
:0401f40062030000a2
:020000040000fa
:0401f800620300009e
:020000040000fa
:0401fc00620300009a
:020000040000fa
:040200006203000095
:020000040000fa
:040204006203000091
:020000040000fa
:04020800620300008d
:020000040000fa
:04020c006203000089
:020000040000fa
:040210006203000085
:020000040000fa
:040214006203000081
:020000040000fa
:04021800620300007d
:020000040000fa
:04021c006203000079
:020000040000fa
:040220006203000075
:020000040000fa
:040224006203000071
:020000040000fa
:04022800620300006d
:020000040000fa
:04022c006203000069
:020000040000fa
:040230006203000065
:020000040000fa
:040234006203000061
:020000040000fa
:04023800620300005d
:020000040000fa
:04023c006203000059
:020000040000fa
:040240006203000055
:020000040000fa
:040244006203000051
:020000040000fa
:04024800620300004d
:020000040000fa
:04024c006203000049
:020000040000fa
:040250006203000045
:020000040000fa
:040254006203000041
:020000040000fa
:04025800620300003d
:020000040000fa
:04025c006203000039
:020000040000fa
:040260006203000035
:020000040000fa
:040264006203000031
:020000040000fa
:04026800620300002d
:020000040000fa
:04026c006203000029
:020000040000fa
:040270006203000025
:020000040000fa
:040274006203000021
:020000040000fa
:04027800620300001d
:020000040000fa
:04027c006203000019
:020000040000fa
:040280006203000015
:020000040000fa
:040284006203000011
:020000040000fa
:04028800620300000d
:020000040000fa
:04028c006203000009
:020000040000fa
:040290006203000005
:020000040000fa
:040294006203000001
:020000040000fa
:0402980062030000fd
:020000040000fa
:04029c0062030000f9
:020000040000fa
:0402a00062030000f5
:020000040000fa
:0402a40062030000f1
:020000040000fa
:0402a80062030000ed
:020000040000fa
:0402ac0062030000e9
:020000040000fa
:0402b00062030000e5
:020000040000fa
:0402b40062030000e1
:020000040000fa
:0402b80062030000dd
:020000040000fa
:0402bc0062030000d9
:020000040000fa
:0402c00062030000d5
:020000040000fa
:0402c40062030000d1
:020000040000fa
:0402c80062030000cd
:020000040000fa
:0402cc0062030000c9
:020000040000fa
:0402d00062030000c5
:020000040000fa
:0402d40062030000c1
:020000040000fa
:0402d80062030000bd
:020000040000fa
:0402dc0062030000b9
:020000040000fa
:0402e00062030000b5
:020000040000fa
:0402e40062030000b1
:020000040000fa
:0402e80062030000ad
:020000040000fa
:0402ec0062030000a9
:020000040000fa
:0402f00062030000a5
:020000040000fa
:0402f40062030000a1
:020000040000fa
:0402f800620300009d
:020000040000fa
:0402fc006203000099
:020000040000fa
:040300006203000094
:020000040000fa
:040304006203000090
:020000040000fa
:04030800620300008c
:020000040000fa
:04030c006203000088
:020000040000fa
:040310006203000084
:020000040000fa
:10040000cf0c21000eff21000e018800000000002b
:10041000000020000000e000020032000001200087
:100420002002880014000700a80007000000e00078
:1004300003003a008036200001002000020037004f
:100440000000200001002000810f70000100320038
:100450000f000700000020000000e0000200320052
:100460000000020000000000fe0302000000000087
:100470000040da000000fe00200020000000e00044
:1004800002003200100020009001880000000600e9
:10049000a1028800800478000000eb001f003700f4
:1004a000e284440054a0b4009905ba00e2844400f8
:1004b00054a0b4009906ba00e284440054a0b400e9
:1004c0000006eb00476fde00fd07b200ae018800ba
:1004d000636ce10003003a000ad801000000eb0061
:1004e0000e003700606ce10008003a00004deb00a0
:1004f0000a05e800020039003420ec000af0a000f0
:100500008b05e900f9ff3e00040037006168e10057
:10051000010032000086eb000b00070019c7ba008b
:100520000e04e0001905ba0003003a000a00e000da
:10053000dbff3a0000000600fe07b200ae028800b2
:100540008a047800f5ff37000cd0a300e20f4d00bd
:100550001c00390089027800354dba000a05e80010
:10056000020039003420ec000af0a0008b05e900fd
:100570000f003200254dba000a05e80002003900dc
:100580003420ec000af0a0008b05e90008003200de
:100590000c00e0000600320015cdba000a05e800a4
:1005a000020039003420ec000af0a0008b05e900bd
:1005b0008984e80054a0b4000b00e000e2ff3a0098
:1005c000000006009902ba00055d78008b05e9007d
:1005d000f7ff3200c82ade00055d78008b05e900d0
:1005e000f3ff32000c00e000f1ff320019ddba0029
:1005f000eeff37003200f8003400f800881f780062
:1006000018002000a8018800180020009801880028
:10061000000000004f0478000000fa000428a90040
:1006200017aea8000080fa003400f9003200f9008b
:100630000040060000a0fe003200f8003400f80080
:10064000881f780018002000a801880018002000ea
:1006500098018800000000004f0478000200fa00b2
:1006600000e8a90040138000000f780017aea90031
:100670005086800080004000000021000080400083
:100680001000780000c0a000401388005186800050
:1006900030062000808f500004003c00508680000f
:1006a0000000e8005086880001003700ca30ef00e3
:1006b0000080fa003400f9003200f9000080fe00ea
:1006c000004006000040da000000fe0000000500c7
:020000040000fa
:1006d000ca100000020000008000000000100000ae
:1006e000ca00000082000000000881000801090023
:1006f0008009fd0009790a00f20a68000bdb0b0093
:10070000490cb4000c190d007a0dd5000d2a0e000d
:10071000790ec1000e030f003d0f70000f9c0f00fb
:10072000c00fdc000ff00f00fc0f000010fc0f00ea
:10073000f00fdc000fc00f009c0f70000f3d0f008a
:10074000030fc1000e790e002a0ed5000d7a0d00a0
:10075000190db4000c490c00db0b68000bf20a0009
:10076000790afd00098009000109810008000800dc
:100770007f07ff000680060003068700050e0500c0
:100780009804250004b703004c03e700028602002a
:100790002b02d600018701003f01fd0000c30000cd
:1007a00090006400004000002400100000040000dd
:1007b000000004000010000024004000006400005d
:1007c0009000c30000fd00003f01870001d601003a
:1007d0002b02860002e702004c03b7000325040049
:1007e00098040e00058705000306800006ff06003a
:0c07f0007f07000008000000000000006f
:020000040000fa
:1007fc000000fa00142eef00222eef00002eef0066
:10080c000e2eef00022eef00162eef000017200028
:10081c00600888000000280080088800113a8000d9
:10082c00f00b2000008160006004200071052000a6
:10083c00237420008049780081497800824978002f
:10084c00008020009033880090002000a0338800a6
:10085c000060220060368800103a800000017800a9
:10086c000260a000600420007105200023742000a9
:10087c008049780081497800824978006022ef0035
:10088c00c0532000101388006422ef000428a90034
:10089c0060c2a90061e2a80020e8a8002428a800f2
:0808ac00c3e8a800ffff3700bc
:020000040000fa
:04af3000f8ff000026
:020000040000fa
:04af3800fbff00001b
:020000040000fa
:04af40009fff00006f
:00000001FF
