:020000040000fa
:080000000002040000000000f2
:020000040000fa
:04000800720300007f
:020000040000fa
:04000c00720300007b
:020000040000fa
:040010007203000077
:020000040000fa
:040014007203000073
:020000040000fa
:04001800720300006f
:020000040000fa
:04001c00720300006b
:020000040000fa
:040020007203000067
:020000040000fa
:040024007203000063
:020000040000fa
:04002800720300005f
:020000040000fa
:04002c00720300005b
:020000040000fa
:040030007203000057
:020000040000fa
:040034007203000053
:020000040000fa
:04003800720300004f
:020000040000fa
:04003c00720300004b
:020000040000fa
:040040007203000047
:020000040000fa
:04004400fa020000bc
:020000040000fa
:04004800720300003f
:020000040000fa
:04004c00720300003b
:020000040000fa
:040050007203000037
:020000040000fa
:040054007203000033
:020000040000fa
:04005800720300002f
:020000040000fa
:04005c00720300002b
:020000040000fa
:040060007203000027
:020000040000fa
:040064007203000023
:020000040000fa
:04006800720300001f
:020000040000fa
:04006c00720300001b
:020000040000fa
:040070007203000017
:020000040000fa
:040074007203000013
:020000040000fa
:04007800720300000f
:020000040000fa
:04007c00720300000b
:020000040000fa
:040080007203000007
:020000040000fa
:040084007203000003
:020000040000fa
:0400880072030000ff
:020000040000fa
:04008c0072030000fb
:020000040000fa
:0400900072030000f7
:020000040000fa
:0400940072030000f3
:020000040000fa
:0400980072030000ef
:020000040000fa
:04009c0072030000eb
:020000040000fa
:0400a00072030000e7
:020000040000fa
:0400a40072030000e3
:020000040000fa
:0400a80072030000df
:020000040000fa
:0400ac0072030000db
:020000040000fa
:0400b00072030000d7
:020000040000fa
:0400b40072030000d3
:020000040000fa
:0400b80072030000cf
:020000040000fa
:0400bc0072030000cb
:020000040000fa
:0400c00072030000c7
:020000040000fa
:0400c40072030000c3
:020000040000fa
:0400c80072030000bf
:020000040000fa
:0400cc0072030000bb
:020000040000fa
:0400d00072030000b7
:020000040000fa
:0400d40072030000b3
:020000040000fa
:0400d80072030000af
:020000040000fa
:0400dc0072030000ab
:020000040000fa
:0400e00072030000a7
:020000040000fa
:0400e40072030000a3
:020000040000fa
:0400e800720300009f
:020000040000fa
:0400ec00720300009b
:020000040000fa
:0400f0007203000097
:020000040000fa
:0400f4007203000093
:020000040000fa
:0400f800720300008f
:020000040000fa
:0400fc00720300008b
:020000040000fa
:040100007203000086
:020000040000fa
:040104007203000082
:020000040000fa
:04010800720300007e
:020000040000fa
:04010c00720300007a
:020000040000fa
:040110007203000076
:020000040000fa
:040114007203000072
:020000040000fa
:04011800720300006e
:020000040000fa
:04011c00720300006a
:020000040000fa
:040120007203000066
:020000040000fa
:040124007203000062
:020000040000fa
:04012800720300005e
:020000040000fa
:04012c00720300005a
:020000040000fa
:040130007203000056
:020000040000fa
:040134007203000052
:020000040000fa
:04013800720300004e
:020000040000fa
:04013c00720300004a
:020000040000fa
:040140007203000046
:020000040000fa
:040144007203000042
:020000040000fa
:04014800720300003e
:020000040000fa
:04014c00720300003a
:020000040000fa
:040150007203000036
:020000040000fa
:040154007203000032
:020000040000fa
:04015800720300002e
:020000040000fa
:04015c00720300002a
:020000040000fa
:040160007203000026
:020000040000fa
:040164007203000022
:020000040000fa
:04016800720300001e
:020000040000fa
:04016c00720300001a
:020000040000fa
:040170007203000016
:020000040000fa
:040174007203000012
:020000040000fa
:04017800720300000e
:020000040000fa
:04017c00720300000a
:020000040000fa
:040180007203000006
:020000040000fa
:040184007203000002
:020000040000fa
:0401880072030000fe
:020000040000fa
:04018c0072030000fa
:020000040000fa
:0401900072030000f6
:020000040000fa
:0401940072030000f2
:020000040000fa
:0401980072030000ee
:020000040000fa
:04019c0072030000ea
:020000040000fa
:0401a00072030000e6
:020000040000fa
:0401a40072030000e2
:020000040000fa
:0401a80072030000de
:020000040000fa
:0401ac0072030000da
:020000040000fa
:0401b00072030000d6
:020000040000fa
:0401b40072030000d2
:020000040000fa
:0401b80072030000ce
:020000040000fa
:0401bc0072030000ca
:020000040000fa
:0401c00072030000c6
:020000040000fa
:0401c40072030000c2
:020000040000fa
:0401c80072030000be
:020000040000fa
:0401cc0072030000ba
:020000040000fa
:0401d00072030000b6
:020000040000fa
:0401d40072030000b2
:020000040000fa
:0401d80072030000ae
:020000040000fa
:0401dc0072030000aa
:020000040000fa
:0401e00072030000a6
:020000040000fa
:0401e40072030000a2
:020000040000fa
:0401e800720300009e
:020000040000fa
:0401ec00720300009a
:020000040000fa
:0401f0007203000096
:020000040000fa
:0401f4007203000092
:020000040000fa
:0401f800720300008e
:020000040000fa
:0401fc00720300008a
:020000040000fa
:040200007203000085
:020000040000fa
:040204007203000081
:020000040000fa
:04020800720300007d
:020000040000fa
:04020c007203000079
:020000040000fa
:040210007203000075
:020000040000fa
:040214007203000071
:020000040000fa
:04021800720300006d
:020000040000fa
:04021c007203000069
:020000040000fa
:040220007203000065
:020000040000fa
:040224007203000061
:020000040000fa
:04022800720300005d
:020000040000fa
:04022c007203000059
:020000040000fa
:040230007203000055
:020000040000fa
:040234007203000051
:020000040000fa
:04023800720300004d
:020000040000fa
:04023c007203000049
:020000040000fa
:040240007203000045
:020000040000fa
:040244007203000041
:020000040000fa
:04024800720300003d
:020000040000fa
:04024c007203000039
:020000040000fa
:040250007203000035
:020000040000fa
:040254007203000031
:020000040000fa
:04025800720300002d
:020000040000fa
:04025c007203000029
:020000040000fa
:040260007203000025
:020000040000fa
:040264007203000021
:020000040000fa
:04026800720300001d
:020000040000fa
:04026c007203000019
:020000040000fa
:040270007203000015
:020000040000fa
:040274007203000011
:020000040000fa
:04027800720300000d
:020000040000fa
:04027c007203000009
:020000040000fa
:040280007203000005
:020000040000fa
:040284007203000001
:020000040000fa
:0402880072030000fd
:020000040000fa
:04028c0072030000f9
:020000040000fa
:0402900072030000f5
:020000040000fa
:0402940072030000f1
:020000040000fa
:0402980072030000ed
:020000040000fa
:04029c0072030000e9
:020000040000fa
:0402a00072030000e5
:020000040000fa
:0402a40072030000e1
:020000040000fa
:0402a80072030000dd
:020000040000fa
:0402ac0072030000d9
:020000040000fa
:0402b00072030000d5
:020000040000fa
:0402b40072030000d1
:020000040000fa
:0402b80072030000cd
:020000040000fa
:0402bc0072030000c9
:020000040000fa
:0402c00072030000c5
:020000040000fa
:0402c40072030000c1
:020000040000fa
:0402c80072030000bd
:020000040000fa
:0402cc0072030000b9
:020000040000fa
:0402d00072030000b5
:020000040000fa
:0402d40072030000b1
:020000040000fa
:0402d80072030000ad
:020000040000fa
:0402dc0072030000a9
:020000040000fa
:0402e00072030000a5
:020000040000fa
:0402e40072030000a1
:020000040000fa
:0402e800720300009d
:020000040000fa
:0402ec007203000099
:020000040000fa
:0402f0007203000095
:020000040000fa
:0402f4007203000091
:020000040000fa
:0402f800720300008d
:020000040000fa
:0402fc007203000089
:020000040000fa
:040300007203000084
:020000040000fa
:040304007203000080
:020000040000fa
:04030800720300007c
:020000040000fa
:04030c007203000078
:020000040000fa
:040310007203000074
:020000040000fa
:100400004f0021000eff21000e01880000000000b7
:10041000000020000000e000020032000001200087
:100420002002880014000700b00007000000e00070
:1004300003003a00c05f20000100200002003700e6
:100440000000200001002000810f70000100320038
:100450000f000700000020000000e0000200320052
:100460000000020000000000d405020000000000af
:100470000040da000000fe00200020000000e00044
:1004800002003200100020009001880000000600e9
:10049000a1028800800478000000eb001f003700f4
:1004a000e284440054a0b4009905ba00e2844400f8
:1004b00054a0b4009906ba00e284440054a0b400e9
:1004c0000006eb00476fde00fd07b200ae018800ba
:1004d000636ce10003003a000ad801000000eb0061
:1004e0000e003700606ce10008003a00004deb00a0
:1004f0000a05e800020039003420ec000af0a000f0
:100500008b05e900f9ff3e00040037006168e10057
:10051000010032000086eb000b00070019c7ba008b
:100520000e04e0001905ba0003003a000a00e000da
:10053000dbff3a0000000600fe07b200ae028800b2
:100540008a047800f5ff37000cd0a300e20f4d00bd
:100550001c00390089027800354dba000a05e80010
:10056000020039003420ec000af0a0008b05e900fd
:100570000f003200254dba000a05e80002003900dc
:100580003420ec000af0a0008b05e90008003200de
:100590000c00e0000600320015cdba000a05e800a4
:1005a000020039003420ec000af0a0008b05e900bd
:1005b0008984e80054a0b4000b00e000e2ff3a0098
:1005c000000006009902ba00055d78008b05e9007d
:1005d000f7ff3200c82ade00055d78008b05e900d0
:1005e000f3ff32000c00e000f1ff320019ddba0029
:1005f000eeff370000a0fe003600f800849fbe002a
:10060000869fbe003200f8003400f800140020007d
:10061000a40188001400200094018800000000005c
:100620000400fa0000e8a9008000eb000000eb00e5
:10063000e400070010079800008080009e009000f2
:100640008080500000802000008f40001e00780055
:100650000000e00003003d000000eb00000f780008
:1006600006003700f0ff20009e007800808f5000c9
:1006700002003400f0ff2000000f78009e00900080
:10068000018088009e0078000000eb000301070055
:10069000108080000000e000050032001100200002
:1006a00000002800fd0007000230ef0005003700c1
:1006b0008000eb0000002800f80007001000200078
:1006c000108088000080fa003400f9003200f90040
:1006d0004f03be004f02be003600f9000080fe004e
:1006e000004006000040da000000fe0000000500a7
:1006f000839f68000100e00002003d0060001000e0
:10070000e08018000300e00002003d0060011100dd
:10071000e0811900050007004f00e00002003b00e7
:1007200060001000e0801800000006006022b800a1
:10073000060220000000d0008180d2000482d20096
:100740008582d2000000a0000202520083825a007b
:10075000030031000202420083824a000000a1002f
:0c0760000603e900f3ff3a000000060069
:020000040000fa
:10076c000080080002000000c51c09000000000009
:10077c000000000000000600f30020008380100041
:10078c0013002000018009008301d30000f0a700b2
:10079c00d803040000000000a1708000da030400fc
:1007ac0000000000017080000200a700ea030400b2
:1007bc0000000000f2ff2f008301690081806100be
:1007cc00ec030400000000008180710000f0a70021
:1007dc00f803040000000000a1708800fa03040074
:1007ec0000000000017088000000000000000600fe
:1007fc00f30020008380100013002000018009000a
:10080c008301d30000f0a7001404040000000000d2
:10081c00117180001604040000000000717080004b
:10082c000200a7002604040000000000f2ff2f00c5
:10083c0083016900818061002c0404000000000029
:10084c0081807100424028000219880000f0a70046
:10085c003804040000000000117188003a04040000
:10086c00000000007170880000000000000006000d
:10087c00f300200083801000130020000180090089
:10088c008301d30000f0a700560404000000000010
:10089c0004718000f57080005a0404000000000010
:1008ac0064708000557080000200a7006c04040086
:1008bc000000000004827100f2ff2f008301690028
:1008cc0085826100740404000000000085827100c0
:1008dc00f2ff2f00830169000482610000f0a70081
:1008ec00820404000000000004718800f570880088
:1008fc0086040400000000006470880055708800b5
:10090c000000000000000600f300200083801000af
:10091c0013002000018009008301d30000f0a70020
:10092c00a004040000000000b1708000a2040400c8
:10093c0000000000117080000200a700b204040047
:10094c0000000000f2ff2f0083016900818061002c
:10095c00b4040400000000008180710000f0a700c6
:10096c00c004040000000000b1708800c204040040
:10097c00000000001170880000000000000006005c
:10098c0000f0a700d204040000000000b07080004a
:10099c00d40404000000000010708000f20020005d
:1009ac0082804000018009000000d300120020006a
:1009bc00020060000000060000f0a700f204040032
:1009cc000000000022002000810041004119880035
:1009dc00f404040000000000411988002023a90041
:1009ec000018800000000600c3e8a8000000060004
:1009fc00c3e8a9000000060014aea90014cea9009b
:100a0c0015aea90022aea90022cea90023aea900e2
:100a1c0016aea90016cea90017aea80021742000ae
:100a2c006204200073052000824878008348780017
:100a3c0042c7a9000080200090338800900020005d
:100a4c00a0338800006022006036880021742000ea
:100a5c0062042000730520008248780083487800e7
:100a6c0042c7a800040009004013800000002000c9
:100a7c0000138800f05320001013880000002000a1
:100a8c002013880060c2a90061e2a80000000600e3
:100a9c0001f0a10001d0a10001c0a00081007000f4
:100aac004013800017aea900411388001000090004
:100abc000000000017aea800000006000200fa00bb
:100acc00000f7800000420009e007800808f5000fa
:100adc000d00360000002800800888001e007800f9
:100aec008000eb000001be0080a8230081032000e1
:100afc00fcfe0700000078006008880000e8a900f0
:100b0c0020e8a80023003700000420009e00780095
:100b1c00808f500010003e001e007800e80f50003f
:100b2c000d00360000012800800888001e007800a7
:100b3c008000eb000001be00107520007100200049
:100b4c00e8fe0700000078006008880000e8a900b3
:100b5c0020e8a8000f0037001e007800e80f5000b6
:100b6c000c003e0000022800800888001e0078005f
:100b7c008000eb000001be00a00e2e000100200042
:100b8c00d8fe0700000078006008880000e8a90083
:100b9c0020e8a8000080fa00000006000000fa001f
:100bac00120020008000eb000000eb00f2fe0700ba
:100bbc00120020008000eb000000eb000cff07008f
:100bcc000001eb008000eb000000eb0028ff0700a9
:100bdc0089ff0700808b2800b8ff070082ff070001
:0c0bec0010002000defe0700fdff3700b7
:020000040000fa
:100bf8000010000004000000800000000000000059
:020000040000fa
:04af3000f8ff000026
:020000040000fa
:04af3800fbff00001b
:020000040000fa
:04af40009fff00006f
:00000001FF
