:020000040000fa
:080000000002040000000000f2
:020000040000fa
:04000800fa020000f8
:020000040000fa
:04000c00fa020000f4
:020000040000fa
:04001000fa020000f0
:020000040000fa
:04001400fa020000ec
:020000040000fa
:04001800fa020000e8
:020000040000fa
:04001c00fa020000e4
:020000040000fa
:04002000fa020000e0
:020000040000fa
:04002400fa020000dc
:020000040000fa
:04002800fa020000d8
:020000040000fa
:04002c00fa020000d4
:020000040000fa
:04003000fa020000d0
:020000040000fa
:04003400fa020000cc
:020000040000fa
:04003800fa020000c8
:020000040000fa
:04003c00fa020000c4
:020000040000fa
:04004000fa020000c0
:020000040000fa
:04004400fa020000bc
:020000040000fa
:04004800fa020000b8
:020000040000fa
:04004c00fa020000b4
:020000040000fa
:04005000fa020000b0
:020000040000fa
:04005400fa020000ac
:020000040000fa
:04005800fa020000a8
:020000040000fa
:04005c00fa020000a4
:020000040000fa
:04006000fa020000a0
:020000040000fa
:04006400fa0200009c
:020000040000fa
:04006800fa02000098
:020000040000fa
:04006c00fa02000094
:020000040000fa
:04007000fa02000090
:020000040000fa
:04007400fa0200008c
:020000040000fa
:04007800fa02000088
:020000040000fa
:04007c00fa02000084
:020000040000fa
:04008000fa02000080
:020000040000fa
:04008400fa0200007c
:020000040000fa
:04008800fa02000078
:020000040000fa
:04008c00fa02000074
:020000040000fa
:04009000fa02000070
:020000040000fa
:04009400fa0200006c
:020000040000fa
:04009800fa02000068
:020000040000fa
:04009c00fa02000064
:020000040000fa
:0400a000fa02000060
:020000040000fa
:0400a400fa0200005c
:020000040000fa
:0400a800fa02000058
:020000040000fa
:0400ac00fa02000054
:020000040000fa
:0400b000fa02000050
:020000040000fa
:0400b400fa0200004c
:020000040000fa
:0400b800fa02000048
:020000040000fa
:0400bc00fa02000044
:020000040000fa
:0400c000fa02000040
:020000040000fa
:0400c400fa0200003c
:020000040000fa
:0400c800fa02000038
:020000040000fa
:0400cc00fa02000034
:020000040000fa
:0400d000fa02000030
:020000040000fa
:0400d400fa0200002c
:020000040000fa
:0400d800fa02000028
:020000040000fa
:0400dc00fa02000024
:020000040000fa
:0400e000fa02000020
:020000040000fa
:0400e400fa0200001c
:020000040000fa
:0400e800fa02000018
:020000040000fa
:0400ec00fa02000014
:020000040000fa
:0400f000fa02000010
:020000040000fa
:0400f400fa0200000c
:020000040000fa
:0400f800fa02000008
:020000040000fa
:0400fc00fa02000004
:020000040000fa
:04010000fa020000ff
:020000040000fa
:04010400fa020000fb
:020000040000fa
:04010800fa020000f7
:020000040000fa
:04010c00fa020000f3
:020000040000fa
:04011000fa020000ef
:020000040000fa
:04011400fa020000eb
:020000040000fa
:04011800fa020000e7
:020000040000fa
:04011c00fa020000e3
:020000040000fa
:04012000fa020000df
:020000040000fa
:04012400fa020000db
:020000040000fa
:04012800fa020000d7
:020000040000fa
:04012c00fa020000d3
:020000040000fa
:04013000fa020000cf
:020000040000fa
:04013400fa020000cb
:020000040000fa
:04013800fa020000c7
:020000040000fa
:04013c00fa020000c3
:020000040000fa
:04014000fa020000bf
:020000040000fa
:04014400fa020000bb
:020000040000fa
:04014800fa020000b7
:020000040000fa
:04014c00fa020000b3
:020000040000fa
:04015000fa020000af
:020000040000fa
:04015400fa020000ab
:020000040000fa
:04015800fa020000a7
:020000040000fa
:04015c00fa020000a3
:020000040000fa
:04016000fa0200009f
:020000040000fa
:04016400fa0200009b
:020000040000fa
:04016800fa02000097
:020000040000fa
:04016c00fa02000093
:020000040000fa
:04017000fa0200008f
:020000040000fa
:04017400fa0200008b
:020000040000fa
:04017800fa02000087
:020000040000fa
:04017c00fa02000083
:020000040000fa
:04018000fa0200007f
:020000040000fa
:04018400fa0200007b
:020000040000fa
:04018800fa02000077
:020000040000fa
:04018c00fa02000073
:020000040000fa
:04019000fa0200006f
:020000040000fa
:04019400fa0200006b
:020000040000fa
:04019800fa02000067
:020000040000fa
:04019c00fa02000063
:020000040000fa
:0401a000fa0200005f
:020000040000fa
:0401a400fa0200005b
:020000040000fa
:0401a800fa02000057
:020000040000fa
:0401ac00fa02000053
:020000040000fa
:0401b000fa0200004f
:020000040000fa
:0401b400fa0200004b
:020000040000fa
:0401b800fa02000047
:020000040000fa
:0401bc00fa02000043
:020000040000fa
:0401c000fa0200003f
:020000040000fa
:0401c400fa0200003b
:020000040000fa
:0401c800fa02000037
:020000040000fa
:0401cc00fa02000033
:020000040000fa
:0401d000fa0200002f
:020000040000fa
:0401d400fa0200002b
:020000040000fa
:0401d800fa02000027
:020000040000fa
:0401dc00fa02000023
:020000040000fa
:0401e000fa0200001f
:020000040000fa
:0401e400fa0200001b
:020000040000fa
:0401e800fa02000017
:020000040000fa
:0401ec00fa02000013
:020000040000fa
:0401f000fa0200000f
:020000040000fa
:0401f400fa0200000b
:020000040000fa
:0401f800fa02000007
:020000040000fa
:0401fc00fa02000003
:020000040000fa
:04020000fa020000fe
:020000040000fa
:04020400fa020000fa
:020000040000fa
:04020800fa020000f6
:020000040000fa
:04020c00fa020000f2
:020000040000fa
:04021000fa020000ee
:020000040000fa
:04021400fa020000ea
:020000040000fa
:04021800fa020000e6
:020000040000fa
:04021c00fa020000e2
:020000040000fa
:04022000fa020000de
:020000040000fa
:04022400fa020000da
:020000040000fa
:04022800fa020000d6
:020000040000fa
:04022c00fa020000d2
:020000040000fa
:04023000fa020000ce
:020000040000fa
:04023400fa020000ca
:020000040000fa
:04023800fa020000c6
:020000040000fa
:04023c00fa020000c2
:020000040000fa
:04024000fa020000be
:020000040000fa
:04024400fa020000ba
:020000040000fa
:04024800fa020000b6
:020000040000fa
:04024c00fa020000b2
:020000040000fa
:04025000fa020000ae
:020000040000fa
:04025400fa020000aa
:020000040000fa
:04025800fa020000a6
:020000040000fa
:04025c00fa020000a2
:020000040000fa
:04026000fa0200009e
:020000040000fa
:04026400fa0200009a
:020000040000fa
:04026800fa02000096
:020000040000fa
:04026c00fa02000092
:020000040000fa
:04027000fa0200008e
:020000040000fa
:04027400fa0200008a
:020000040000fa
:04027800fa02000086
:020000040000fa
:04027c00fa02000082
:020000040000fa
:04028000fa0200007e
:020000040000fa
:04028400fa0200007a
:020000040000fa
:04028800fa02000076
:020000040000fa
:04028c00fa02000072
:020000040000fa
:04029000fa0200006e
:020000040000fa
:04029400fa0200006a
:020000040000fa
:04029800fa02000066
:020000040000fa
:04029c00fa02000062
:020000040000fa
:0402a000fa0200005e
:020000040000fa
:0402a400fa0200005a
:020000040000fa
:0402a800fa02000056
:020000040000fa
:0402ac00fa02000052
:020000040000fa
:0402b000fa0200004e
:020000040000fa
:0402b400fa0200004a
:020000040000fa
:0402b800fa02000046
:020000040000fa
:0402bc00fa02000042
:020000040000fa
:0402c000fa0200003e
:020000040000fa
:0402c400fa0200003a
:020000040000fa
:0402c800fa02000036
:020000040000fa
:0402cc00fa02000032
:020000040000fa
:0402d000fa0200002e
:020000040000fa
:0402d400fa0200002a
:020000040000fa
:0402d800fa02000026
:020000040000fa
:0402dc00fa02000022
:020000040000fa
:0402e000fa0200001e
:020000040000fa
:0402e400fa0200001a
:020000040000fa
:0402e800fa02000016
:020000040000fa
:0402ec00fa02000012
:020000040000fa
:0402f000fa0200000e
:020000040000fa
:0402f400fa0200000a
:020000040000fa
:0402f800fa02000006
:020000040000fa
:0402fc00fa02000002
:020000040000fa
:04030000fa020000fd
:020000040000fa
:04030400fa020000f9
:020000040000fa
:04030800fa020000f5
:020000040000fa
:04030c00fa020000f1
:020000040000fa
:04031000fa020000ed
:020000040000fa
:100400000f0021000eff21000e01880000000000f7
:10041000000020000000e000020032000001200087
:100420002002880014000700740007000000e000ac
:1004300003003a0000002000010020000200370005
:100440000000200001002000810f70000100320038
:100450000f000700000020000000e0000200320052
:100460000000020000000000f20402000000000092
:100470000040da000000fe00200020000000e00044
:1004800002003200100020009001880000000600e9
:10049000a1028800800478000000eb001f003700f4
:1004a000e284440054a0b4009905ba00e2844400f8
:1004b00054a0b4009906ba00e284440054a0b400e9
:1004c0000006eb00476fde00fd07b200ae018800ba
:1004d000636ce10003003a000ad801000000eb0061
:1004e0000e003700606ce10008003a00004deb00a0
:1004f0000a05e800020039003420ec000af0a000f0
:100500008b05e900f9ff3e00040037006168e10057
:10051000010032000086eb000b00070019c7ba008b
:100520000e04e0001905ba0003003a000a00e000da
:10053000dbff3a0000000600fe07b200ae028800b2
:100540008a047800f5ff37000cd0a300e20f4d00bd
:100550001c00390089027800354dba000a05e80010
:10056000020039003420ec000af0a0008b05e900fd
:100570000f003200254dba000a05e80002003900dc
:100580003420ec000af0a0008b05e90008003200de
:100590000c00e0000600320015cdba000a05e800a4
:1005a000020039003420ec000af0a0008b05e900bd
:1005b0008984e80054a0b4000b00e000e2ff3a0098
:1005c000000006009902ba00055d78008b05e9007d
:1005d000f7ff3200c82ade00055d78008b05e900d0
:1005e000f3ff32000c00e000f1ff320019ddba0029
:1005f000eeff37000040da000000fe0000000500ba
:10060000839f68000100e00002003d0060001000d0
:10061000e08018000300e00002003d0060011100ce
:10062000e0811900050007004f00e00002003b00d8
:1006300060001000e0801800000006006022b80092
:10064000060220000000d0008180d2000482d20087
:100650008582d2000000a0000202520083825a006c
:10066000030031000202420083824a000000a10020
:0c0670000603e900f3ff3a00000006005a
:020000040000fa
:10067c000080080002000000c51c090000000000fa
:10068c000000000000000600f30020008380100032
:10069c0013002000018009008301d30000f0a700a3
:1006ac006003040000000000a170800062030400dd
:1006bc0000000000017080000200a700720304001b
:1006cc0000000000f2ff2f008301690081806100af
:1006dc0074030400000000008180710000f0a7008a
:1006ec008003040000000000a17088008203040055
:1006fc0000000000017088000000000000000600ef
:10070c00f3002000838010001300200001800900fa
:10071c008301d30000f0a7009c030400000000003c
:10072c00117180009e0304000000000071708000b5
:10073c000200a700ae03040000000000f2ff2f002f
:10074c008301690081806100b00304000000000097
:10075c008180710000f0a700bc03040000000000c1
:10076c0011718800be030400000000007170880045
:10077c00000000000000060000000600f30020004e
:10078c008380100013002000018009008301d30036
:10079c0000f0a700da03040000000000b170800034
:1007ac00dc03040000000000117080000200a700b0
:1007bc00ec03040000000000f2ff2f00830169002d
:1007cc0081806100ee030400000000008180710054
:1007dc0000f0a700fa03040000000000b1708800cc
:1007ec00fc030400000000001170880000000000f1
:1007fc000000060000f0a7000c040400000000003c
:10080c00b07080000e040400000000001070800026
:10081c00f200200082804000018009000000d3001b
:10082c00120020000200600000000600c3e8a800cf
:10083c000000060014aea90014cea90015aea90044
:10084c0022aea90022cea90023aea90016aea900a3
:10085c0016cea90017aea800217420006204200057
:10086c0073052000824878008348780042c7a900ad
:10087c00008020009033880090002000a033880076
:10088c000060220060368800217420006204200081
:10089c0073052000824878008348780042c7a8007e
:1008ac0004000900401380000000200000138800a1
:1008bc00f053200010138800000020002013880043
:1008cc0060c2a90061e2a8000000060001f0a100ce
:1008dc0001d0a10001c0a000810070004013800075
:1008ec0017aea90041138800100009000000000099
:1008fc0017aea800000006000200fa00000f7800f6
:10090c00000420009e007800808f50000d003600ff
:10091c0000002800800888001e0078008000eb0092
:10092c000001be0080a823008103200031ff0700d6
:10093c00000078006008880000e8a90020e8a80002
:10094c0023003700000420009e007800808f5000a8
:10095c0010003e001e007800e80f50000d0036001d
:10096c0000012800800888001e0078008000eb0041
:10097c000001be0010752000710020001dff070053
:10098c00000078006008880000e8a90020e8a800b2
:10099c000f0037001e007800e80f50000c003e00de
:1009ac0000022800800888001e0078008000eb0000
:1009bc000001be00a00e2e00010020000dff07005c
:1009cc00000078006008880000e8a90020e8a80072
:1009dc000080fa00000006000000fa00120020005f
:1009ec008000eb000000eb0027ff07000001eb008c
:1009fc00110020000000eb0023ff07001200200074
:100a0c00210020000000eb001fff07000001eb009d
:100a1c00310020000000eb001bff07000001eb0081
:100a2c00410020000000eb0017ff07000001eb0065
:100a3c008000eb000000eb0031ff07000001eb0031
:100a4c00110020000000eb002dff07000001eb005f
:100a5c00210020000000eb0029ff07000001eb0043
:100a6c00310020000000eb0025ff07000001eb0027
:100a7c00410020000000eb0021ff070010002000c7
:100a8c000071880040002000f070880012002000e7
:100a9c00410020000000eb0038ff07008000eb0055
:100aac000000eb0053ff070000017800110020004c
:100abc000000eb0031ff0700210020000000eb00dc
:100acc004cff070000017800310020000000eb0013
:080adc002aff0700f1ff3700bb
:020000040000fa
:04af3000f8ff000026
:020000040000fa
:04af3800fbff00001b
:020000040000fa
:04af40009fff00006f
:00000001FF
