:020000040000fa
:080000000002040000000000f2
:020000040000fa
:040008005c03000095
:020000040000fa
:04000c005c03000091
:020000040000fa
:040010005c0300008d
:020000040000fa
:040014005c03000089
:020000040000fa
:040018005c03000085
:020000040000fa
:04001c005c03000081
:020000040000fa
:040020005c0300007d
:020000040000fa
:040024005c03000079
:020000040000fa
:040028005c03000075
:020000040000fa
:04002c005c03000071
:020000040000fa
:040030005c0300006d
:020000040000fa
:040034005c03000069
:020000040000fa
:040038005c03000065
:020000040000fa
:04003c005c03000061
:020000040000fa
:040040005c0300005d
:020000040000fa
:04004400fa020000bc
:020000040000fa
:040048005c03000055
:020000040000fa
:04004c005c03000051
:020000040000fa
:040050005c0300004d
:020000040000fa
:040054005c03000049
:020000040000fa
:040058005c03000045
:020000040000fa
:04005c005c03000041
:020000040000fa
:040060005c0300003d
:020000040000fa
:040064005c03000039
:020000040000fa
:040068005c03000035
:020000040000fa
:04006c005c03000031
:020000040000fa
:040070005c0300002d
:020000040000fa
:040074005c03000029
:020000040000fa
:040078005c03000025
:020000040000fa
:04007c005c03000021
:020000040000fa
:040080005c0300001d
:020000040000fa
:040084005c03000019
:020000040000fa
:040088005c03000015
:020000040000fa
:04008c005c03000011
:020000040000fa
:040090005c0300000d
:020000040000fa
:040094005c03000009
:020000040000fa
:040098005c03000005
:020000040000fa
:04009c005c03000001
:020000040000fa
:0400a0005c030000fd
:020000040000fa
:0400a4005c030000f9
:020000040000fa
:0400a8005c030000f5
:020000040000fa
:0400ac003a03000013
:020000040000fa
:0400b0005c030000ed
:020000040000fa
:0400b4005c030000e9
:020000040000fa
:0400b8005c030000e5
:020000040000fa
:0400bc005c030000e1
:020000040000fa
:0400c0005c030000dd
:020000040000fa
:0400c4005c030000d9
:020000040000fa
:0400c8005c030000d5
:020000040000fa
:0400cc005c030000d1
:020000040000fa
:0400d0005c030000cd
:020000040000fa
:0400d4005c030000c9
:020000040000fa
:0400d8005c030000c5
:020000040000fa
:0400dc005c030000c1
:020000040000fa
:0400e0005c030000bd
:020000040000fa
:0400e4005c030000b9
:020000040000fa
:0400e8005c030000b5
:020000040000fa
:0400ec005c030000b1
:020000040000fa
:0400f0005c030000ad
:020000040000fa
:0400f4005c030000a9
:020000040000fa
:0400f8005c030000a5
:020000040000fa
:0400fc005c030000a1
:020000040000fa
:040100005c0300009c
:020000040000fa
:040104005c03000098
:020000040000fa
:040108005c03000094
:020000040000fa
:04010c005c03000090
:020000040000fa
:040110005c0300008c
:020000040000fa
:040114005c03000088
:020000040000fa
:040118005c03000084
:020000040000fa
:04011c005c03000080
:020000040000fa
:040120005c0300007c
:020000040000fa
:040124005c03000078
:020000040000fa
:040128005c03000074
:020000040000fa
:04012c005c03000070
:020000040000fa
:040130005c0300006c
:020000040000fa
:040134005c03000068
:020000040000fa
:040138005c03000064
:020000040000fa
:04013c005c03000060
:020000040000fa
:040140005c0300005c
:020000040000fa
:040144005c03000058
:020000040000fa
:040148005c03000054
:020000040000fa
:04014c005c03000050
:020000040000fa
:040150005c0300004c
:020000040000fa
:040154005c03000048
:020000040000fa
:040158005c03000044
:020000040000fa
:04015c005c03000040
:020000040000fa
:040160005c0300003c
:020000040000fa
:040164005c03000038
:020000040000fa
:040168005c03000034
:020000040000fa
:04016c005c03000030
:020000040000fa
:040170005c0300002c
:020000040000fa
:040174005c03000028
:020000040000fa
:040178005c03000024
:020000040000fa
:04017c005c03000020
:020000040000fa
:040180005c0300001c
:020000040000fa
:040184005c03000018
:020000040000fa
:040188005c03000014
:020000040000fa
:04018c005c03000010
:020000040000fa
:040190005c0300000c
:020000040000fa
:040194005c03000008
:020000040000fa
:040198005c03000004
:020000040000fa
:04019c005c03000000
:020000040000fa
:0401a0005c030000fc
:020000040000fa
:0401a4005c030000f8
:020000040000fa
:0401a8005c030000f4
:020000040000fa
:0401ac005c030000f0
:020000040000fa
:0401b0005c030000ec
:020000040000fa
:0401b4005c030000e8
:020000040000fa
:0401b8005c030000e4
:020000040000fa
:0401bc005c030000e0
:020000040000fa
:0401c0005c030000dc
:020000040000fa
:0401c4005c030000d8
:020000040000fa
:0401c8005c030000d4
:020000040000fa
:0401cc005c030000d0
:020000040000fa
:0401d0005c030000cc
:020000040000fa
:0401d4005c030000c8
:020000040000fa
:0401d8005c030000c4
:020000040000fa
:0401dc005c030000c0
:020000040000fa
:0401e0005c030000bc
:020000040000fa
:0401e4005c030000b8
:020000040000fa
:0401e8005c030000b4
:020000040000fa
:0401ec005c030000b0
:020000040000fa
:0401f0005c030000ac
:020000040000fa
:0401f4005c030000a8
:020000040000fa
:0401f8005c030000a4
:020000040000fa
:0401fc005c030000a0
:020000040000fa
:040200005c0300009b
:020000040000fa
:040204005c03000097
:020000040000fa
:040208005c03000093
:020000040000fa
:04020c005c0300008f
:020000040000fa
:040210005c0300008b
:020000040000fa
:040214005c03000087
:020000040000fa
:040218005c03000083
:020000040000fa
:04021c005c0300007f
:020000040000fa
:040220005c0300007b
:020000040000fa
:040224005c03000077
:020000040000fa
:040228005c03000073
:020000040000fa
:04022c005c0300006f
:020000040000fa
:040230005c0300006b
:020000040000fa
:040234005c03000067
:020000040000fa
:040238005c03000063
:020000040000fa
:04023c005c0300005f
:020000040000fa
:040240005c0300005b
:020000040000fa
:040244005c03000057
:020000040000fa
:040248005c03000053
:020000040000fa
:04024c005c0300004f
:020000040000fa
:040250005c0300004b
:020000040000fa
:040254005c03000047
:020000040000fa
:040258005c03000043
:020000040000fa
:04025c005c0300003f
:020000040000fa
:040260005c0300003b
:020000040000fa
:040264005c03000037
:020000040000fa
:040268005c03000033
:020000040000fa
:04026c005c0300002f
:020000040000fa
:040270005c0300002b
:020000040000fa
:040274005c03000027
:020000040000fa
:040278005c03000023
:020000040000fa
:04027c005c0300001f
:020000040000fa
:040280005c0300001b
:020000040000fa
:040284005c03000017
:020000040000fa
:040288005c03000013
:020000040000fa
:04028c005c0300000f
:020000040000fa
:040290005c0300000b
:020000040000fa
:040294005c03000007
:020000040000fa
:040298005c03000003
:020000040000fa
:04029c005c030000ff
:020000040000fa
:0402a0005c030000fb
:020000040000fa
:0402a4005c030000f7
:020000040000fa
:0402a8005c030000f3
:020000040000fa
:0402ac005c030000ef
:020000040000fa
:0402b0005c030000eb
:020000040000fa
:0402b4005c030000e7
:020000040000fa
:0402b8005c030000e3
:020000040000fa
:0402bc005c030000df
:020000040000fa
:0402c0005c030000db
:020000040000fa
:0402c4005c030000d7
:020000040000fa
:0402c8005c030000d3
:020000040000fa
:0402cc005c030000cf
:020000040000fa
:0402d0005c030000cb
:020000040000fa
:0402d4005c030000c7
:020000040000fa
:0402d8005c030000c3
:020000040000fa
:0402dc005c030000bf
:020000040000fa
:0402e0005c030000bb
:020000040000fa
:0402e4005c030000b7
:020000040000fa
:0402e8005c030000b3
:020000040000fa
:0402ec005c030000af
:020000040000fa
:0402f0005c030000ab
:020000040000fa
:0402f4005c030000a7
:020000040000fa
:0402f8005c030000a3
:020000040000fa
:0402fc005c0300009f
:020000040000fa
:040300005c0300009a
:020000040000fa
:040304005c03000096
:020000040000fa
:040308005c03000092
:020000040000fa
:04030c005c0300008e
:020000040000fa
:040310005c0300008a
:020000040000fa
:100400002f0021000eff21000e01880000000000d7
:10041000000020000000e000020032000001200087
:100420002002880014000700a50007000000e0007b
:1004300003003a00603d2000010020000200370068
:100440000000200001002000810f70000100320038
:100450000f000700000020000000e0000200320052
:100460000000020000000000620302000000000023
:100470000040da000000fe00200020000000e00044
:1004800002003200100020009001880000000600e9
:10049000a1028800800478000000eb001f003700f4
:1004a000e284440054a0b4009905ba00e2844400f8
:1004b00054a0b4009906ba00e284440054a0b400e9
:1004c0000006eb00476fde00fd07b200ae018800ba
:1004d000636ce10003003a000ad801000000eb0061
:1004e0000e003700606ce10008003a00004deb00a0
:1004f0000a05e800020039003420ec000af0a000f0
:100500008b05e900f9ff3e00040037006168e10057
:10051000010032000086eb000b00070019c7ba008b
:100520000e04e0001905ba0003003a000a00e000da
:10053000dbff3a0000000600fe07b200ae028800b2
:100540008a047800f5ff37000cd0a300e20f4d00bd
:100550001c00390089027800354dba000a05e80010
:10056000020039003420ec000af0a0008b05e900fd
:100570000f003200254dba000a05e80002003900dc
:100580003420ec000af0a0008b05e90008003200de
:100590000c00e0000600320015cdba000a05e800a4
:1005a000020039003420ec000af0a0008b05e900bd
:1005b0008984e80054a0b4000b00e000e2ff3a0098
:1005c000000006009902ba00055d78008b05e9007d
:1005d000f7ff3200c82ade00055d78008b05e900d0
:1005e000f3ff32000c00e000f1ff320019ddba0029
:1005f000eeff3700801f78003200f8003400f8006a
:1006000010002000a0018800100020009001880048
:10061000000000000200fa0000e8a90017aea900df
:1006200040138000000f78000080800000f0a700d9
:100630000000ea000000e9004f00de0000808800b2
:10064000008080000000e0000300320000a02100d4
:10065000401388000200370000402100401388004a
:100660000080fa003400f9003200f9004f007800f1
:10067000004006003200f8003400f800881f7800bf
:1006800018002000a80188001800200098018800a8
:10069000000000004f0478000000fa000428a900c0
:1006a00017aea800160eaa000080fa003400f90068
:1006b0003200f900004006000040da000000fe00b1
:0406c0000000050031
:020000040000fa
:1006c4000000fa000030ef00002eef00142eef00bf
:1006d4000e2eef00222eef0000002200b0708800e2
:1006e400113a8000f00b20000081600060042000bb
:1006f4007105200023742000804978008149780026
:100704008249780000802000903388009000200007
:10071400a03388000060220060368800103a800010
:10072400000178000260a000600420007105200030
:100734002374200080497800814978008249780038
:1007440040138000008088004013800000808800ef
:1007540040138000008088004013800000808800df
:100764000030ef006022ef00b05320001013880027
:100774006422ef0060c2a90061e2a800a0eb260099
:100784006008880000032a008008880020e8a80088
:100794002428a800c3e8a800020eaa00022eaa007a
:0807a400024eaa00fcff370021
:020000040000fa
:1007ac0000100000020000008000000000000000ab
:020000040000fa
:04af3000f8ff000026
:020000040000fa
:04af3800fbff00001b
:020000040000fa
:04af40009fff00006f
:00000001FF
