:020000040000fa
:080000000002040000000000f2
:020000040000fa
:0400080020030000d1
:020000040000fa
:04000c0020030000cd
:020000040000fa
:0400100020030000c9
:020000040000fa
:0400140020030000c5
:020000040000fa
:0400180020030000c1
:020000040000fa
:04001c0020030000bd
:020000040000fa
:0400200020030000b9
:020000040000fa
:0400240020030000b5
:020000040000fa
:0400280020030000b1
:020000040000fa
:04002c0020030000ad
:020000040000fa
:0400300020030000a9
:020000040000fa
:0400340020030000a5
:020000040000fa
:0400380020030000a1
:020000040000fa
:04003c00200300009d
:020000040000fa
:040040002003000099
:020000040000fa
:04004400fa020000bc
:020000040000fa
:040048002003000091
:020000040000fa
:04004c00200300008d
:020000040000fa
:040050002003000089
:020000040000fa
:040054002003000085
:020000040000fa
:040058002003000081
:020000040000fa
:04005c00200300007d
:020000040000fa
:040060002003000079
:020000040000fa
:040064002003000075
:020000040000fa
:040068002003000071
:020000040000fa
:04006c00200300006d
:020000040000fa
:040070002003000069
:020000040000fa
:040074002003000065
:020000040000fa
:040078002003000061
:020000040000fa
:04007c00200300005d
:020000040000fa
:040080002003000059
:020000040000fa
:040084002003000055
:020000040000fa
:040088002003000051
:020000040000fa
:04008c00200300004d
:020000040000fa
:040090002003000049
:020000040000fa
:040094002003000045
:020000040000fa
:040098002003000041
:020000040000fa
:04009c00200300003d
:020000040000fa
:0400a0002003000039
:020000040000fa
:0400a4002003000035
:020000040000fa
:0400a8002003000031
:020000040000fa
:0400ac00200300002d
:020000040000fa
:0400b0002003000029
:020000040000fa
:0400b4002003000025
:020000040000fa
:0400b8002003000021
:020000040000fa
:0400bc00200300001d
:020000040000fa
:0400c0002003000019
:020000040000fa
:0400c4002003000015
:020000040000fa
:0400c8002003000011
:020000040000fa
:0400cc00200300000d
:020000040000fa
:0400d0002003000009
:020000040000fa
:0400d4002003000005
:020000040000fa
:0400d8002003000001
:020000040000fa
:0400dc0020030000fd
:020000040000fa
:0400e00020030000f9
:020000040000fa
:0400e40020030000f5
:020000040000fa
:0400e80020030000f1
:020000040000fa
:0400ec0020030000ed
:020000040000fa
:0400f00020030000e9
:020000040000fa
:0400f40020030000e5
:020000040000fa
:0400f80020030000e1
:020000040000fa
:0400fc0020030000dd
:020000040000fa
:0401000020030000d8
:020000040000fa
:0401040020030000d4
:020000040000fa
:0401080020030000d0
:020000040000fa
:04010c0020030000cc
:020000040000fa
:0401100020030000c8
:020000040000fa
:0401140020030000c4
:020000040000fa
:0401180020030000c0
:020000040000fa
:04011c0020030000bc
:020000040000fa
:0401200020030000b8
:020000040000fa
:0401240020030000b4
:020000040000fa
:0401280020030000b0
:020000040000fa
:04012c0020030000ac
:020000040000fa
:0401300020030000a8
:020000040000fa
:0401340020030000a4
:020000040000fa
:0401380020030000a0
:020000040000fa
:04013c00200300009c
:020000040000fa
:040140002003000098
:020000040000fa
:040144002003000094
:020000040000fa
:040148002003000090
:020000040000fa
:04014c00200300008c
:020000040000fa
:040150002003000088
:020000040000fa
:040154002003000084
:020000040000fa
:040158002003000080
:020000040000fa
:04015c00200300007c
:020000040000fa
:040160002003000078
:020000040000fa
:040164002003000074
:020000040000fa
:040168002003000070
:020000040000fa
:04016c00200300006c
:020000040000fa
:040170002003000068
:020000040000fa
:040174002003000064
:020000040000fa
:040178002003000060
:020000040000fa
:04017c00200300005c
:020000040000fa
:040180002003000058
:020000040000fa
:040184002003000054
:020000040000fa
:040188002003000050
:020000040000fa
:04018c00200300004c
:020000040000fa
:040190002003000048
:020000040000fa
:040194002003000044
:020000040000fa
:040198002003000040
:020000040000fa
:04019c00200300003c
:020000040000fa
:0401a0002003000038
:020000040000fa
:0401a4002003000034
:020000040000fa
:0401a8002003000030
:020000040000fa
:0401ac00200300002c
:020000040000fa
:0401b0002003000028
:020000040000fa
:0401b4002003000024
:020000040000fa
:0401b8002003000020
:020000040000fa
:0401bc00200300001c
:020000040000fa
:0401c0002003000018
:020000040000fa
:0401c4002003000014
:020000040000fa
:0401c8002003000010
:020000040000fa
:0401cc00200300000c
:020000040000fa
:0401d0002003000008
:020000040000fa
:0401d4002003000004
:020000040000fa
:0401d8002003000000
:020000040000fa
:0401dc0020030000fc
:020000040000fa
:0401e00020030000f8
:020000040000fa
:0401e40020030000f4
:020000040000fa
:0401e80020030000f0
:020000040000fa
:0401ec0020030000ec
:020000040000fa
:0401f00020030000e8
:020000040000fa
:0401f40020030000e4
:020000040000fa
:0401f80020030000e0
:020000040000fa
:0401fc0020030000dc
:020000040000fa
:0402000020030000d7
:020000040000fa
:0402040020030000d3
:020000040000fa
:0402080020030000cf
:020000040000fa
:04020c0020030000cb
:020000040000fa
:0402100020030000c7
:020000040000fa
:0402140020030000c3
:020000040000fa
:0402180020030000bf
:020000040000fa
:04021c0020030000bb
:020000040000fa
:0402200020030000b7
:020000040000fa
:0402240020030000b3
:020000040000fa
:0402280020030000af
:020000040000fa
:04022c0020030000ab
:020000040000fa
:0402300020030000a7
:020000040000fa
:0402340020030000a3
:020000040000fa
:04023800200300009f
:020000040000fa
:04023c00200300009b
:020000040000fa
:040240002003000097
:020000040000fa
:040244002003000093
:020000040000fa
:04024800200300008f
:020000040000fa
:04024c00200300008b
:020000040000fa
:040250002003000087
:020000040000fa
:040254002003000083
:020000040000fa
:04025800200300007f
:020000040000fa
:04025c00200300007b
:020000040000fa
:040260002003000077
:020000040000fa
:040264002003000073
:020000040000fa
:04026800200300006f
:020000040000fa
:04026c00200300006b
:020000040000fa
:040270002003000067
:020000040000fa
:040274002003000063
:020000040000fa
:04027800200300005f
:020000040000fa
:04027c00200300005b
:020000040000fa
:040280002003000057
:020000040000fa
:040284002003000053
:020000040000fa
:04028800200300004f
:020000040000fa
:04028c00200300004b
:020000040000fa
:040290002003000047
:020000040000fa
:040294002003000043
:020000040000fa
:04029800200300003f
:020000040000fa
:04029c00200300003b
:020000040000fa
:0402a0002003000037
:020000040000fa
:0402a4002003000033
:020000040000fa
:0402a800200300002f
:020000040000fa
:0402ac00200300002b
:020000040000fa
:0402b0002003000027
:020000040000fa
:0402b4002003000023
:020000040000fa
:0402b800200300001f
:020000040000fa
:0402bc00200300001b
:020000040000fa
:0402c0002003000017
:020000040000fa
:0402c4002003000013
:020000040000fa
:0402c800200300000f
:020000040000fa
:0402cc00200300000b
:020000040000fa
:0402d0002003000007
:020000040000fa
:0402d4002003000003
:020000040000fa
:0402d80020030000ff
:020000040000fa
:0402dc0020030000fb
:020000040000fa
:0402e00020030000f7
:020000040000fa
:0402e40020030000f3
:020000040000fa
:0402e80020030000ef
:020000040000fa
:0402ec0020030000eb
:020000040000fa
:0402f00020030000e7
:020000040000fa
:0402f40020030000e3
:020000040000fa
:0402f80020030000df
:020000040000fa
:0402fc0020030000db
:020000040000fa
:0403000020030000d6
:020000040000fa
:0403040020030000d2
:020000040000fa
:0403080020030000ce
:020000040000fa
:04030c0020030000ca
:020000040000fa
:0403100020030000c6
:020000040000fa
:100400006f0021000eff21000e0188000000000097
:10041000000020000000e000020032000001200087
:100420002002880014000700870007000000e00099
:1004300003003a00e03c20000100200002003700e9
:100440000000200001002000810f70000100320038
:100450000f000700000020000000e0000200320052
:10046000000002000000000026030200000000005f
:100470000040da000000fe00200020000000e00044
:1004800002003200100020009001880000000600e9
:10049000a1028800800478000000eb001f003700f4
:1004a000e284440054a0b4009905ba00e2844400f8
:1004b00054a0b4009906ba00e284440054a0b400e9
:1004c0000006eb00476fde00fd07b200ae018800ba
:1004d000636ce10003003a000ad801000000eb0061
:1004e0000e003700606ce10008003a00004deb00a0
:1004f0000a05e800020039003420ec000af0a000f0
:100500008b05e900f9ff3e00040037006168e10057
:10051000010032000086eb000b00070019c7ba008b
:100520000e04e0001905ba0003003a000a00e000da
:10053000dbff3a0000000600fe07b200ae028800b2
:100540008a047800f5ff37000cd0a300e20f4d00bd
:100550001c00390089027800354dba000a05e80010
:10056000020039003420ec000af0a0008b05e900fd
:100570000f003200254dba000a05e80002003900dc
:100580003420ec000af0a0008b05e90008003200de
:100590000c00e0000600320015cdba000a05e800a4
:1005a000020039003420ec000af0a0008b05e900bd
:1005b0008984e80054a0b4000b00e000e2ff3a0098
:1005c000000006009902ba00055d78008b05e9007d
:1005d000f7ff3200c82ade00055d78008b05e900d0
:1005e000f3ff32000c00e000f1ff320019ddba0029
:1005f000eeff3700801f78003200f8003400f8006a
:1006000010002000a0018800100020009001880048
:10061000000000000000fa0000e8a900160eaa0081
:10062000208080000000e800208088000080fa0020
:100630003400f9003200f9004f0078000040060055
:0c0640000040da000000fe000000050091
:020000040000fa
:10064c000000fa00222eef00142eef00b0832300de
:10065c0060088800000328008008880000e8a900d2
:10066c0020e8a800c3e8a800030037000000000041
:10067c00010037000000000000808000e10f5000f6
:10068c00faff3a00108080000000400080007800e3
:10069c0020808000808f5000f6ff3d00113a8000d2
:1006ac00f00b200000816000600420007105200028
:1006bc0023742000804978008149780082497800b1
:1006cc001003200090338800103a8000000178005d
:1006dc000260a0006004200071052000237420003b
:1006ec008049780081497800824978000000280010
:1006fc00703a88004427ef00800a2000303a8800c6
:10070c00213a8000f0f32f0000806000203a88002e
:10071c00213a800000fe2f00008060005000b300e2
:10072c00203a8800c3e8a9001200200080072000ae
:10073c00a109200033742000804978008149780099
:10074c0082497800103a8000000178000200a00075
:10075c00600420007105200023742000804978007b
:10076c0081497800824978000100370000000000c0
:10077c00113a800000022000008060000000e000c0
:10078c00faff32000030ef00c3e8a800baff3700d0
:020000040000fa
:10079c0004100000020000008000000000100000a7
:1007ac0004000000820000000100050000000000b1
:0407bc000000000039
:020000040000fa
:04af300078ff0000a6
:020000040000fa
:04af38007fff000097
:020000040000fa
:04af40009fff00006f
:00000001FF
