:020000040000fa
:080000000002040000000000f2
:020000040000fa
:04000800fa020000f8
:020000040000fa
:04000c00fa020000f4
:020000040000fa
:04001000fa020000f0
:020000040000fa
:04001400fa020000ec
:020000040000fa
:04001800fa020000e8
:020000040000fa
:04001c00fa020000e4
:020000040000fa
:04002000fa020000e0
:020000040000fa
:04002400fa020000dc
:020000040000fa
:04002800fa020000d8
:020000040000fa
:04002c00fa020000d4
:020000040000fa
:04003000fa020000d0
:020000040000fa
:04003400fa020000cc
:020000040000fa
:04003800fa020000c8
:020000040000fa
:04003c00fa020000c4
:020000040000fa
:04004000fa020000c0
:020000040000fa
:04004400fa020000bc
:020000040000fa
:04004800fa020000b8
:020000040000fa
:04004c00fa020000b4
:020000040000fa
:04005000fa020000b0
:020000040000fa
:04005400fa020000ac
:020000040000fa
:04005800fa020000a8
:020000040000fa
:04005c00fa020000a4
:020000040000fa
:04006000fa020000a0
:020000040000fa
:04006400fa0200009c
:020000040000fa
:04006800fa02000098
:020000040000fa
:04006c00fa02000094
:020000040000fa
:04007000fa02000090
:020000040000fa
:04007400fa0200008c
:020000040000fa
:04007800fa02000088
:020000040000fa
:04007c00fa02000084
:020000040000fa
:04008000fa02000080
:020000040000fa
:04008400fa0200007c
:020000040000fa
:04008800fa02000078
:020000040000fa
:04008c00fa02000074
:020000040000fa
:04009000fa02000070
:020000040000fa
:04009400fa0200006c
:020000040000fa
:04009800fa02000068
:020000040000fa
:04009c00fa02000064
:020000040000fa
:0400a000fa02000060
:020000040000fa
:0400a400fa0200005c
:020000040000fa
:0400a800fa02000058
:020000040000fa
:0400ac00be0500008d
:020000040000fa
:0400b000fa02000050
:020000040000fa
:0400b400fa0200004c
:020000040000fa
:0400b800fa02000048
:020000040000fa
:0400bc00fa02000044
:020000040000fa
:0400c000fa02000040
:020000040000fa
:0400c400fa0200003c
:020000040000fa
:0400c800fa02000038
:020000040000fa
:0400cc00fa02000034
:020000040000fa
:0400d000fa02000030
:020000040000fa
:0400d400fa0200002c
:020000040000fa
:0400d800fa02000028
:020000040000fa
:0400dc00fa02000024
:020000040000fa
:0400e000fa02000020
:020000040000fa
:0400e400fa0200001c
:020000040000fa
:0400e800fa02000018
:020000040000fa
:0400ec00fa02000014
:020000040000fa
:0400f000fa02000010
:020000040000fa
:0400f400fa0200000c
:020000040000fa
:0400f800fa02000008
:020000040000fa
:0400fc00fa02000004
:020000040000fa
:04010000fa020000ff
:020000040000fa
:04010400fa020000fb
:020000040000fa
:04010800fa020000f7
:020000040000fa
:04010c00fa020000f3
:020000040000fa
:04011000fa020000ef
:020000040000fa
:04011400fa020000eb
:020000040000fa
:04011800fa020000e7
:020000040000fa
:04011c00fa020000e3
:020000040000fa
:04012000fa020000df
:020000040000fa
:04012400fa020000db
:020000040000fa
:04012800fa020000d7
:020000040000fa
:04012c00fa020000d3
:020000040000fa
:04013000fa020000cf
:020000040000fa
:04013400fa020000cb
:020000040000fa
:04013800fa020000c7
:020000040000fa
:04013c00fa020000c3
:020000040000fa
:04014000fa020000bf
:020000040000fa
:04014400fa020000bb
:020000040000fa
:04014800fa020000b7
:020000040000fa
:04014c00fa020000b3
:020000040000fa
:04015000fa020000af
:020000040000fa
:04015400fa020000ab
:020000040000fa
:04015800fa020000a7
:020000040000fa
:04015c00fa020000a3
:020000040000fa
:04016000fa0200009f
:020000040000fa
:04016400fa0200009b
:020000040000fa
:04016800fa02000097
:020000040000fa
:04016c00fa02000093
:020000040000fa
:04017000fa0200008f
:020000040000fa
:04017400fa0200008b
:020000040000fa
:04017800fa02000087
:020000040000fa
:04017c00fa02000083
:020000040000fa
:04018000fa0200007f
:020000040000fa
:04018400fa0200007b
:020000040000fa
:04018800fa02000077
:020000040000fa
:04018c00fa02000073
:020000040000fa
:04019000fa0200006f
:020000040000fa
:04019400fa0200006b
:020000040000fa
:04019800fa02000067
:020000040000fa
:04019c00fa02000063
:020000040000fa
:0401a000fa0200005f
:020000040000fa
:0401a400fa0200005b
:020000040000fa
:0401a800fa02000057
:020000040000fa
:0401ac00fa02000053
:020000040000fa
:0401b000fa0200004f
:020000040000fa
:0401b400fa0200004b
:020000040000fa
:0401b800fa02000047
:020000040000fa
:0401bc00fa02000043
:020000040000fa
:0401c000fa0200003f
:020000040000fa
:0401c400fa0200003b
:020000040000fa
:0401c800fa02000037
:020000040000fa
:0401cc00fa02000033
:020000040000fa
:0401d000fa0200002f
:020000040000fa
:0401d400fa0200002b
:020000040000fa
:0401d800fa02000027
:020000040000fa
:0401dc00fa02000023
:020000040000fa
:0401e000fa0200001f
:020000040000fa
:0401e400fa0200001b
:020000040000fa
:0401e800fa02000017
:020000040000fa
:0401ec00fa02000013
:020000040000fa
:0401f000fa0200000f
:020000040000fa
:0401f400fa0200000b
:020000040000fa
:0401f800fa02000007
:020000040000fa
:0401fc00fa02000003
:020000040000fa
:04020000fa020000fe
:020000040000fa
:04020400fa020000fa
:020000040000fa
:04020800fa020000f6
:020000040000fa
:04020c00fa020000f2
:020000040000fa
:04021000fa020000ee
:020000040000fa
:04021400fa020000ea
:020000040000fa
:04021800fa020000e6
:020000040000fa
:04021c00fa020000e2
:020000040000fa
:04022000fa020000de
:020000040000fa
:04022400fa020000da
:020000040000fa
:04022800fa020000d6
:020000040000fa
:04022c00fa020000d2
:020000040000fa
:04023000fa020000ce
:020000040000fa
:04023400fa020000ca
:020000040000fa
:04023800fa020000c6
:020000040000fa
:04023c00fa020000c2
:020000040000fa
:04024000fa020000be
:020000040000fa
:04024400fa020000ba
:020000040000fa
:04024800fa020000b6
:020000040000fa
:04024c00fa020000b2
:020000040000fa
:04025000fa020000ae
:020000040000fa
:04025400fa020000aa
:020000040000fa
:04025800fa020000a6
:020000040000fa
:04025c00fa020000a2
:020000040000fa
:04026000fa0200009e
:020000040000fa
:04026400fa0200009a
:020000040000fa
:04026800fa02000096
:020000040000fa
:04026c00fa02000092
:020000040000fa
:04027000fa0200008e
:020000040000fa
:04027400fa0200008a
:020000040000fa
:04027800fa02000086
:020000040000fa
:04027c00fa02000082
:020000040000fa
:04028000fa0200007e
:020000040000fa
:04028400fa0200007a
:020000040000fa
:04028800fa02000076
:020000040000fa
:04028c00fa02000072
:020000040000fa
:04029000fa0200006e
:020000040000fa
:04029400fa0200006a
:020000040000fa
:04029800fa02000066
:020000040000fa
:04029c00fa02000062
:020000040000fa
:0402a000fa0200005e
:020000040000fa
:0402a400fa0200005a
:020000040000fa
:0402a800fa02000056
:020000040000fa
:0402ac00fa02000052
:020000040000fa
:0402b000fa0200004e
:020000040000fa
:0402b400fa0200004a
:020000040000fa
:0402b800fa02000046
:020000040000fa
:0402bc00fa02000042
:020000040000fa
:0402c000fa0200003e
:020000040000fa
:0402c400fa0200003a
:020000040000fa
:0402c800fa02000036
:020000040000fa
:0402cc00fa02000032
:020000040000fa
:0402d000fa0200002e
:020000040000fa
:0402d400fa0200002a
:020000040000fa
:0402d800fa02000026
:020000040000fa
:0402dc00fa02000022
:020000040000fa
:0402e000fa0200001e
:020000040000fa
:0402e400fa0200001a
:020000040000fa
:0402e800fa02000016
:020000040000fa
:0402ec00fa02000012
:020000040000fa
:0402f000fa0200000e
:020000040000fa
:0402f400fa0200000a
:020000040000fa
:0402f800fa02000006
:020000040000fa
:0402fc00fa02000002
:020000040000fa
:04030000fa020000fd
:020000040000fa
:04030400fa020000f9
:020000040000fa
:04030800fa020000f5
:020000040000fa
:04030c00fa020000f1
:020000040000fa
:04031000fa020000ed
:020000040000fa
:100400000f0021000eff21000e01880000000000f7
:10041000000020000000e000020032000001200087
:100420002002880014000700740007000000e000ac
:1004300003003a0000002000010020000200370005
:100440000000200001002000810f70000100320038
:100450000f000700000020000000e0000200320052
:100460000000020000000000400602000000000042
:100470000040da000000fe00200020000000e00044
:1004800002003200100020009001880000000600e9
:10049000a1028800800478000000eb001f003700f4
:1004a000e284440054a0b4009905ba00e2844400f8
:1004b00054a0b4009906ba00e284440054a0b400e9
:1004c0000006eb00476fde00fd07b200ae018800ba
:1004d000636ce10003003a000ad801000000eb0061
:1004e0000e003700606ce10008003a00004deb00a0
:1004f0000a05e800020039003420ec000af0a000f0
:100500008b05e900f9ff3e00040037006168e10057
:10051000010032000086eb000b00070019c7ba008b
:100520000e04e0001905ba0003003a000a00e000da
:10053000dbff3a0000000600fe07b200ae028800b2
:100540008a047800f5ff37000cd0a300e20f4d00bd
:100550001c00390089027800354dba000a05e80010
:10056000020039003420ec000af0a0008b05e900fd
:100570000f003200254dba000a05e80002003900dc
:100580003420ec000af0a0008b05e90008003200de
:100590000c00e0000600320015cdba000a05e800a4
:1005a000020039003420ec000af0a0008b05e900bd
:1005b0008984e80054a0b4000b00e000e2ff3a0098
:1005c000000006009902ba00055d78008b05e9007d
:1005d000f7ff3200c82ade00055d78008b05e900d0
:1005e000f3ff32000c00e000f1ff320019ddba0029
:1005f000eeff37000040da000000fe0000000500ba
:10060000889fbe008a9fbe008c1f7800970007005d
:100610009e00330003866c006450e1002e0032001f
:100620006420e100330032006150e1002f0032000d
:100630006120e1003100320085855500eb07b000f4
:1006400009002000080420000500370008044400c9
:1006500089844c000a0031000603430087834b0065
:100660000001530081815b00f8ff33000203be00ec
:100670000800a0000804440089844c00f6ff3900fb
:10068000c639dd0083017300010032001300200031
:100690008904d1000884d3000998a3000500320022
:1006a0000800a7000300a0008904d1000884d3003b
:1006b0008b05e8008904d1000884d3000001eb0019
:1006c0000281d2002e00070001f0a1000cf0a7006b
:1006d00001f0a000760037006420e10078003200cd
:1006e0000801be000200be00f7ff37006120e100f4
:1006f000730032006000b800f3ff370000002000f4
:1007000001f82700f0ff37000001be00420007009b
:100710000470a70003f0a10003f8a30013003a003f
:100720006509b10010003200090035006928e100b8
:100730000200350001002800000005000000400014
:10074000818048008502e900fcff3a0000000600b5
:10075000f88f4200050035008100d1000080d300f1
:100760008502e800fcff3a00000006008000eb0074
:10077000000005004f89de00820178005300370039
:1007800081002000618055000b003d000b0020001f
:1007900061fe2f000100e1001d0034008281710024
:1007a000610164008904d1000884d3000000e800de
:1007b000faff3a007100200061006400030070003d
:1007c000020060000900320061044400e0844c0033
:1007d0000988a500050032008b05e8006808e100e3
:1007e00002003a008904d1000884d300f20f2000ef
:1007f0000258e10005003d00c75ddd00f907b200c9
:100800008980750008007800000006000bf82700ba
:100810008b00780000000500c70ade00f107b20077
:10082000f50fb20008003200e1cf420002003200b2
:100830000170a00024000500810f7000010032004b
:100840000408050044000500810f700002003a0012
:10085000140005008502e9000000400081c0480046
:10086000fcff3b000170a000240005000004be0056
:10087000e9ff07000003be000405be000200be0041
:10088000e5ff0700844f7500000006000200be006f
:100890006450e100050036006420e10002003600eb
:1008a0000968a30001003a000800be000160a00032
:1008b0004f0678004f05be004f04be000000060042
:1008c000f0ff2f00f1ff2700f9ff3700881f7800a5
:1008d000030478000300e00007003d006000100002
:1008e000e080180060011900e081190002003b005f
:1008f00001f02d00030037000400070008f0a700f6
:1009000001f0a0004f04780000000600889fbe00a0
:100910008a9fbe0000827000040271000482710090
:10092000260032000004be000200be006011b800c4
:100930006b092000950220000182cf000a003900d7
:100940000541b1000082cf00070039000541b10028
:100950000982cf00040039000541b1000882cf00b0
:10096000010039000541b100054252001200320079
:100970000a003b0082817100610164008100d100a6
:100980000080d3008984d3000884d3008b05e8005d
:100990000442e800f7ff3a0007003700080444006b
:1009a00089844c0000004800818048008b05e900e4
:1009b0000442e900f9ff3a0071ff07004f05be004d
:0809c0004f04be000000060018
:020000040000fa
:1009c8000080080002000000c51c090000000000ab
:1009d800000000000000060013002000f2002000c4
:1009e80002001000008009008301d300a07080007d
:1009f8000100a7000c05040000000000f2ff2f0012
:100a080083016900008061000e05040000000000f9
:100a180000807100a070880000000600130020000c
:100a2800f200200002001000008009008301d300ba
:100a3800b07080000100a7002e050400000000002f
:100a4800f2ff2f0083016900008061003005040077
:100a58000000000000807100b070880000000600ef
:100a680013002000f200200002001000008009009e
:100a78008301d300107180000100a7005005040015
:100a880000000000f2ff2f00830169000080610070
:100a980052050400000000000080710010718800f9
:100aa80000000600c3e8a8000000060014aea90074
:100ab80014cea90015aea90022aea90022cea90025
:100ac80023aea90016aea90016cea90017aea8003d
:100ad80021742000620420007305200082487800f9
:100ae8008348780042c7a90000802000903388001e
:100af80090002000a0338800006022006036880043
:100b080021742000620420007305200082487800c8
:100b18008348780042c7a8000400090040138000f9
:100b28000000200000138800b05320001013880034
:100b3800000020002013880060c2a90061e2a8001c
:100b48000428a9002428a80000000600f2ff2000bd
:100b58008100610001c0a0000b0009000000d30063
:100b68008100700017aea90040138000411388006f
:100b7800000006000428a90017aea80000400600df
:100b88000200fa00000f7800000420009e007800a0
:100b9800808f50000f00340000002a008008880071
:100ba8001e007800cf80de00f0fe07000001be00c6
:100bb80000a22e0001a624008ffe0700d0fe070029
:100bc800000078006008880000e8a90020e8a80074
:100bd80027003700000420009e007800808f500016
:100be80012003c001e007800e80f50000f0034008f
:100bf80000012a00800888001e007800cf80de00ef
:100c0800dafe07000001be0000a22e00018e2400bb
:100c180079fe0700bafe0700000078006008880027
:100c280000e8a90020e8a800110037001e0078009d
:100c3800e80f50000e003c0000022a0080088800df
:100c48001e007800cf80de00c8fe07000001be004d
:100c580000a22e000176240067fe0700a8fe070008
:100c6800000078006008880000e8a90020e8a800d3
:100c78000080fa00000006000000fa00142eef00c1
:100c8800222eef000080eb0000708800ffff370085
:020000040000fa
:04af3000f8ff000026
:020000040000fa
:04af3800fbff00001b
:020000040000fa
:04af40009fff00006f
:00000001FF
