:020000040000fa
:080000000002040000000000f2
:020000040000fa
:04000800520300009f
:020000040000fa
:04000c00520300009b
:020000040000fa
:040010005203000097
:020000040000fa
:040014005203000093
:020000040000fa
:04001800520300008f
:020000040000fa
:04001c00520300008b
:020000040000fa
:040020005203000087
:020000040000fa
:040024005203000083
:020000040000fa
:04002800520300007f
:020000040000fa
:04002c00520300007b
:020000040000fa
:040030005203000077
:020000040000fa
:040034005203000073
:020000040000fa
:04003800520300006f
:020000040000fa
:04003c00520300006b
:020000040000fa
:040040005203000067
:020000040000fa
:04004400fa020000bc
:020000040000fa
:04004800520300005f
:020000040000fa
:04004c00520300005b
:020000040000fa
:040050005203000057
:020000040000fa
:040054005203000053
:020000040000fa
:04005800520300004f
:020000040000fa
:04005c00520300004b
:020000040000fa
:040060005203000047
:020000040000fa
:040064005203000043
:020000040000fa
:04006800520300003f
:020000040000fa
:04006c00520300003b
:020000040000fa
:040070005203000037
:020000040000fa
:040074005203000033
:020000040000fa
:04007800520300002f
:020000040000fa
:04007c00520300002b
:020000040000fa
:040080005203000027
:020000040000fa
:040084005203000023
:020000040000fa
:04008800520300001f
:020000040000fa
:04008c00520300001b
:020000040000fa
:040090005203000017
:020000040000fa
:040094005203000013
:020000040000fa
:04009800520300000f
:020000040000fa
:04009c00520300000b
:020000040000fa
:0400a0005203000007
:020000040000fa
:0400a4005203000003
:020000040000fa
:0400a80052030000ff
:020000040000fa
:0400ac0052030000fb
:020000040000fa
:0400b00052030000f7
:020000040000fa
:0400b40052030000f3
:020000040000fa
:0400b80052030000ef
:020000040000fa
:0400bc0052030000eb
:020000040000fa
:0400c00052030000e7
:020000040000fa
:0400c40052030000e3
:020000040000fa
:0400c80052030000df
:020000040000fa
:0400cc0052030000db
:020000040000fa
:0400d00052030000d7
:020000040000fa
:0400d40052030000d3
:020000040000fa
:0400d80052030000cf
:020000040000fa
:0400dc0052030000cb
:020000040000fa
:0400e00052030000c7
:020000040000fa
:0400e40052030000c3
:020000040000fa
:0400e80052030000bf
:020000040000fa
:0400ec0052030000bb
:020000040000fa
:0400f00052030000b7
:020000040000fa
:0400f40052030000b3
:020000040000fa
:0400f80052030000af
:020000040000fa
:0400fc0052030000ab
:020000040000fa
:0401000052030000a6
:020000040000fa
:0401040052030000a2
:020000040000fa
:04010800520300009e
:020000040000fa
:04010c00520300009a
:020000040000fa
:040110005203000096
:020000040000fa
:040114005203000092
:020000040000fa
:04011800520300008e
:020000040000fa
:04011c00520300008a
:020000040000fa
:040120005203000086
:020000040000fa
:040124005203000082
:020000040000fa
:04012800520300007e
:020000040000fa
:04012c00520300007a
:020000040000fa
:040130005203000076
:020000040000fa
:040134005203000072
:020000040000fa
:04013800520300006e
:020000040000fa
:04013c00520300006a
:020000040000fa
:040140005203000066
:020000040000fa
:040144005203000062
:020000040000fa
:04014800520300005e
:020000040000fa
:04014c00520300005a
:020000040000fa
:040150005203000056
:020000040000fa
:040154005203000052
:020000040000fa
:04015800520300004e
:020000040000fa
:04015c00520300004a
:020000040000fa
:040160005203000046
:020000040000fa
:040164005203000042
:020000040000fa
:04016800520300003e
:020000040000fa
:04016c00520300003a
:020000040000fa
:040170005203000036
:020000040000fa
:040174005203000032
:020000040000fa
:04017800520300002e
:020000040000fa
:04017c00520300002a
:020000040000fa
:040180005203000026
:020000040000fa
:040184005203000022
:020000040000fa
:04018800520300001e
:020000040000fa
:04018c00520300001a
:020000040000fa
:040190005203000016
:020000040000fa
:040194005203000012
:020000040000fa
:04019800520300000e
:020000040000fa
:04019c00520300000a
:020000040000fa
:0401a0005203000006
:020000040000fa
:0401a4005203000002
:020000040000fa
:0401a80052030000fe
:020000040000fa
:0401ac0052030000fa
:020000040000fa
:0401b00052030000f6
:020000040000fa
:0401b40052030000f2
:020000040000fa
:0401b80052030000ee
:020000040000fa
:0401bc0052030000ea
:020000040000fa
:0401c00052030000e6
:020000040000fa
:0401c40052030000e2
:020000040000fa
:0401c80052030000de
:020000040000fa
:0401cc0052030000da
:020000040000fa
:0401d00052030000d6
:020000040000fa
:0401d40052030000d2
:020000040000fa
:0401d80052030000ce
:020000040000fa
:0401dc0052030000ca
:020000040000fa
:0401e00052030000c6
:020000040000fa
:0401e40052030000c2
:020000040000fa
:0401e80052030000be
:020000040000fa
:0401ec0052030000ba
:020000040000fa
:0401f00052030000b6
:020000040000fa
:0401f40052030000b2
:020000040000fa
:0401f80052030000ae
:020000040000fa
:0401fc0052030000aa
:020000040000fa
:0402000052030000a5
:020000040000fa
:0402040052030000a1
:020000040000fa
:04020800520300009d
:020000040000fa
:04020c005203000099
:020000040000fa
:040210005203000095
:020000040000fa
:040214005203000091
:020000040000fa
:04021800520300008d
:020000040000fa
:04021c005203000089
:020000040000fa
:040220005203000085
:020000040000fa
:040224005203000081
:020000040000fa
:04022800520300007d
:020000040000fa
:04022c005203000079
:020000040000fa
:040230005203000075
:020000040000fa
:040234005203000071
:020000040000fa
:04023800520300006d
:020000040000fa
:04023c005203000069
:020000040000fa
:040240005203000065
:020000040000fa
:040244005203000061
:020000040000fa
:04024800520300005d
:020000040000fa
:04024c005203000059
:020000040000fa
:040250005203000055
:020000040000fa
:040254005203000051
:020000040000fa
:04025800520300004d
:020000040000fa
:04025c005203000049
:020000040000fa
:040260005203000045
:020000040000fa
:040264005203000041
:020000040000fa
:04026800520300003d
:020000040000fa
:04026c005203000039
:020000040000fa
:040270005203000035
:020000040000fa
:040274005203000031
:020000040000fa
:04027800520300002d
:020000040000fa
:04027c005203000029
:020000040000fa
:040280005203000025
:020000040000fa
:040284005203000021
:020000040000fa
:04028800520300001d
:020000040000fa
:04028c005203000019
:020000040000fa
:040290005203000015
:020000040000fa
:040294005203000011
:020000040000fa
:04029800520300000d
:020000040000fa
:04029c005203000009
:020000040000fa
:0402a0005203000005
:020000040000fa
:0402a4005203000001
:020000040000fa
:0402a80052030000fd
:020000040000fa
:0402ac0052030000f9
:020000040000fa
:0402b00052030000f5
:020000040000fa
:0402b40052030000f1
:020000040000fa
:0402b80052030000ed
:020000040000fa
:0402bc0052030000e9
:020000040000fa
:0402c00052030000e5
:020000040000fa
:0402c40052030000e1
:020000040000fa
:0402c80052030000dd
:020000040000fa
:0402cc0052030000d9
:020000040000fa
:0402d00052030000d5
:020000040000fa
:0402d40052030000d1
:020000040000fa
:0402d80052030000cd
:020000040000fa
:0402dc0052030000c9
:020000040000fa
:0402e00052030000c5
:020000040000fa
:0402e40052030000c1
:020000040000fa
:0402e80052030000bd
:020000040000fa
:0402ec0052030000b9
:020000040000fa
:0402f00052030000b5
:020000040000fa
:0402f40052030000b1
:020000040000fa
:0402f80052030000ad
:020000040000fa
:0402fc0052030000a9
:020000040000fa
:0403000052030000a4
:020000040000fa
:0403040052030000a0
:020000040000fa
:04030800520300009c
:020000040000fa
:04030c005203000098
:020000040000fa
:040310005203000094
:020000040000fa
:100400004f0021000eff21000e01880000000000b7
:10041000000020000000e000020032000001200087
:100420002002880014000700a00007000000e00080
:1004300003003a0020722000010020000200370073
:100440000000200001002000810f70000100320038
:100450000f000700000020000000e0000200320052
:1004600000000200000000001e0402000000000066
:100470000040da000000fe00200020000000e00044
:1004800002003200100020009001880000000600e9
:10049000a1028800800478000000eb001f003700f4
:1004a000e284440054a0b4009905ba00e2844400f8
:1004b00054a0b4009906ba00e284440054a0b400e9
:1004c0000006eb00476fde00fd07b200ae018800ba
:1004d000636ce10003003a000ad801000000eb0061
:1004e0000e003700606ce10008003a00004deb00a0
:1004f0000a05e800020039003420ec000af0a000f0
:100500008b05e900f9ff3e00040037006168e10057
:10051000010032000086eb000b00070019c7ba008b
:100520000e04e0001905ba0003003a000a00e000da
:10053000dbff3a0000000600fe07b200ae028800b2
:100540008a047800f5ff37000cd0a300e20f4d00bd
:100550001c00390089027800354dba000a05e80010
:10056000020039003420ec000af0a0008b05e900fd
:100570000f003200254dba000a05e80002003900dc
:100580003420ec000af0a0008b05e90008003200de
:100590000c00e0000600320015cdba000a05e800a4
:1005a000020039003420ec000af0a0008b05e900bd
:1005b0008984e80054a0b4000b00e000e2ff3a0098
:1005c000000006009902ba00055d78008b05e9007d
:1005d000f7ff3200c82ade00055d78008b05e900d0
:1005e000f3ff32000c00e000f1ff320019ddba0029
:1005f000eeff37003600f800809fbe00829fbe00ed
:10060000849fbe00869fbe003200f8003400f800d0
:1006100010002000a0018800100020009001880038
:10062000000000000000fa0000e8a900008080003f
:100630000000e0000d0032000030ef00118080006b
:10064000e0ff2000808f500003003c0010808000fd
:100650000002b000108088001080800080007800c8
:1006600000002800ec010700050037008000eb00c7
:1006700000002800e801070010002000008088002a
:100680000080fa003400f9003200f9004f03be0088
:100690004f02be004f01be004f00be003600f90001
:1006a000004006000040da000000fe0000000500e7
:1006b000839f68000100e00002003d006000100020
:1006c000e08018000300e00002003d00600111001e
:1006d000e0811900050007004f00e00002003b0028
:1006e00060001000e0801800000006006022b800e2
:1006f000060220000000d0008180d2000482d200d7
:100700008582d2000000a0000202520083825a00bb
:10071000030031000202420083824a000000a1006f
:0c0720000603e900f3ff3a0000000600a9
:020000040000fa
:10072c000200fa00000f7800000420009e00780000
:10073c00808f50000d0036000000280080088800d3
:10074c001e0078008000eb000001be0080a8230092
:10075c0081032000d3ff07000000780060088800a8
:10076c0000e8a90020e8a8002300370000042000be
:10077c009e007800808f500010003e001e00780014
:10078c00e80f50000d00360000012800800888009a
:10079c001e0078008000eb000001be0010752000e8
:1007ac0071002000bfff070000007800600888007f
:1007bc0000e8a90020e8a8000f0037001e00780010
:1007cc00e80f50000c003e00000228008008880052
:1007dc001e0078008000eb000001be00a00e2e0071
:1007ec0001002000afff07000000780060088800bf
:1007fc0000e8a90020e8a8000080fa00000006002c
:10080c000400fa00000f780011079800f07f200018
:10081c00108088001e00780000004000c0ff070018
:10082c001e009000bb0007000080fa0000000600cc
:10083c000000fa004f010700401f2000b8ff07001e
:10084c008000eb0000002800700107004501070044
:10085c008125200050102000e9ff07008125200091
:10086c00c00d2000e6ff070081252000e00a2000d3
:10087c00e3ff07008125200020082000e0ff07008f
:10088c00810c200020092000ddff0700810c2000d6
:10089c00400a2000daff0700810c2000e00a20004b
:1008ac00d7ff07000119200020092000d4ff070002
:1008bc00810c2000e00a2000d1ff070081252000d8
:1008cc0020082000ceff07008125200020082000f2
:1008dc00cbff07008125200020092000c8ff07005e
:1008ec0081252000900e2000c5ff070081252000e7
:1008fc00c00d2000c2ff070081252000e00a200067
:10090c00bfff0700810c200020092000bcff07005e
:10091c00810c2000400a2000b9ff0700810c200048
:10092c00e00a2000b6ff070001192000300c20005f
:10093c00b3ff0700810c2000900e2000b0ff0700d1
:10094c0081252000300c2000adff0700011920008c
:10095c00300c2000aaff0700810c2000c00d2000e5
:10096c00a7ff0700810c2000900e2000a4ff0700b9
:10097c00810c2000c00d2000a1ff0700810c20007d
:10098c00300c20009eff07000119200050102000a1
:10099c009bff0700810c2000c00d200098ff070072
:1009ac00810c2000300c200095ff0700011920005d
:1009bc00e00a200092ff070001192000e00a200045
:1009cc008fff0700810c2000300c20008cff0700eb
:1009dc0001192000c00d200089ff0700810c2000a8
:1009ec00e00a200086ff07000119200020092000e2
:1009fc0083ff0700810c2000e00a200080ff070025
:100a0c00810c2000200920007dff07000119200027
:100a1c00200820007aff0700011920002008200080
:100a2c0077ff0700810c20002008200074ff0700ce
:100a3c0001192000e00a200071ff0700810c200042
:100a4c00c00d20006eff0700810c2000300c200030
:100a5c006bff0700c50007008000eb0000002800ba
:100a6c00ea000700001920002a000700bd0007005b
:100a7c0001192000e00a200061ff0700810c200012
:100a8c00c00d20005eff0700810c2000300c200000
:100a9c005bff0700810c2000c00d200058ff0700f1
:100aac00810c2000900e200055ff0700810c2000c7
:100abc00700f200052ff0700810c2000c00d200099
:100acc004fff0700810c2000e00a20004cff0700bc
:100adc0001192000300c200049ff0700810c200078
:100aec002008200046ff070081252000e00a200096
:100afc0043ff07009d0007008000eb00000028006a
:100b0c00c2000700007122000200070095000700d8
:100b1c004fff37000080080002000000c51c0900d0
:100b2c00000000000000000000000600f3002000a0
:100b3c008380100013002000018009008301d30082
:100b4c0000f0a700b205040000000000a1708000b6
:100b5c00b405040000000000017080000200a70032
:100b6c00c405040000000000f2ff2f00830169009f
:100b7c0081806100c60504000000000081807100c6
:100b8c0000f0a700d205040000000000a17088004e
:100b9c00d405040000000000017088000000000073
:100bac0000000600f30020008380100013002000da
:100bbc00018009008301d30000f0a700ee050400ba
:100bcc000000000011718000f0050400000000001e
:100bdc00717080000200a7000006040000000000f5
:100bec00f2ff2f008301690081806100020604007e
:100bfc00000000008180710000f0a7000e060400c8
:100c0c0000000000117188001006040000000000b4
:100c1c00717088000000000000000600f300200046
:100c2c008380100013002000018009008301d30091
:100c3c0000f0a7002c0604000000000004718000e6
:100c4c00f570800030060400000000006470800025
:100c5c00557080000200a70042060400000000004e
:100c6c0004827100f2ff2f0083016900858261000c
:100c7c004a0604000000000085827100f2ff2f007c
:100c8c00830169000482610000f0a700580604008b
:100c9c000000000004718800f57088005c060400f8
:100cac00000000006470880055708800000000008f
:100cbc0000000600f30020008380100013002000c9
:100ccc00018009008301d30000f0a7007606040020
:100cdc0000000000b17080007806040000000000e5
:100cec00117080000200a7008806040000000000bc
:100cfc00f2ff2f0083016900818061008a060400e5
:100d0c00000000008180710000f0a700960604002e
:100d1c0000000000b170880098060400000000007c
:100d2c0011708800000000000000060000f0a70011
:100d3c00a806040000000000b0708000aa060400a1
:100d4c000000000010708000f20020008280400043
:100d5c00018009000000d300120020000200600096
:100d6c0000000600c3e8a80000000600c3e8a900c4
:100d7c000000060014aea90014cea90015aea900ff
:100d8c0022aea90022cea90023aea90016aea9005e
:100d9c0016cea90017aea800217420006204200012
:100dac0073052000824878008348780042c7a90068
:100dbc00008020009033880090002000a033880031
:100dcc00006022006036880021742000620420003c
:100ddc0073052000824878008348780042c7a80039
:100dec00040009004013800000002000001388005c
:100dfc00f0532000101388000000200020138800fe
:100e0c0060c2a90061e2a8000000060001f0a10088
:100e1c0001d0a10001c0a00081007000401380002f
:100e2c0017aea90041138800100009000000000053
:080e3c0017aea800000006003b
:020000040000fa
:100e440000100000020000008000000002100000fa
:100e54000200000082000000ff0700000000000004
:020000040000fa
:04af3000f8ff000026
:020000040000fa
:04af3800fbff00001b
:020000040000fa
:04af40009fff00006f
:00000001FF
