:020000040000fa
:080000000002040000000000f2
:020000040000fa
:040008005803000099
:020000040000fa
:04000c005803000095
:020000040000fa
:040010005803000091
:020000040000fa
:04001400580300008d
:020000040000fa
:040018005803000089
:020000040000fa
:04001c005803000085
:020000040000fa
:040020005803000081
:020000040000fa
:04002400580300007d
:020000040000fa
:040028005803000079
:020000040000fa
:04002c005803000075
:020000040000fa
:040030005803000071
:020000040000fa
:04003400580300006d
:020000040000fa
:040038005803000069
:020000040000fa
:04003c005803000065
:020000040000fa
:040040005803000061
:020000040000fa
:04004400fa020000bc
:020000040000fa
:040048005803000059
:020000040000fa
:04004c005803000055
:020000040000fa
:040050005803000051
:020000040000fa
:04005400580300004d
:020000040000fa
:040058005803000049
:020000040000fa
:04005c005803000045
:020000040000fa
:040060005803000041
:020000040000fa
:04006400580300003d
:020000040000fa
:040068005803000039
:020000040000fa
:04006c005803000035
:020000040000fa
:040070005803000031
:020000040000fa
:04007400580300002d
:020000040000fa
:040078005803000029
:020000040000fa
:04007c005803000025
:020000040000fa
:040080005803000021
:020000040000fa
:04008400580300001d
:020000040000fa
:040088005803000019
:020000040000fa
:04008c005803000015
:020000040000fa
:040090005803000011
:020000040000fa
:04009400580300000d
:020000040000fa
:040098005803000009
:020000040000fa
:04009c005803000005
:020000040000fa
:0400a0005803000001
:020000040000fa
:0400a40058030000fd
:020000040000fa
:0400a80058030000f9
:020000040000fa
:0400ac0058030000f5
:020000040000fa
:0400b00058030000f1
:020000040000fa
:0400b40058030000ed
:020000040000fa
:0400b80058030000e9
:020000040000fa
:0400bc0058030000e5
:020000040000fa
:0400c00058030000e1
:020000040000fa
:0400c40058030000dd
:020000040000fa
:0400c80058030000d9
:020000040000fa
:0400cc0058030000d5
:020000040000fa
:0400d00058030000d1
:020000040000fa
:0400d40058030000cd
:020000040000fa
:0400d80058030000c9
:020000040000fa
:0400dc0058030000c5
:020000040000fa
:0400e00058030000c1
:020000040000fa
:0400e40058030000bd
:020000040000fa
:0400e80058030000b9
:020000040000fa
:0400ec0058030000b5
:020000040000fa
:0400f00058030000b1
:020000040000fa
:0400f40058030000ad
:020000040000fa
:0400f80058030000a9
:020000040000fa
:0400fc0058030000a5
:020000040000fa
:0401000058030000a0
:020000040000fa
:04010400580300009c
:020000040000fa
:040108005803000098
:020000040000fa
:04010c005803000094
:020000040000fa
:040110005803000090
:020000040000fa
:04011400580300008c
:020000040000fa
:040118005803000088
:020000040000fa
:04011c005803000084
:020000040000fa
:040120005803000080
:020000040000fa
:04012400580300007c
:020000040000fa
:040128005803000078
:020000040000fa
:04012c005803000074
:020000040000fa
:040130005803000070
:020000040000fa
:04013400580300006c
:020000040000fa
:040138005803000068
:020000040000fa
:04013c005803000064
:020000040000fa
:040140005803000060
:020000040000fa
:04014400580300005c
:020000040000fa
:040148005803000058
:020000040000fa
:04014c005803000054
:020000040000fa
:040150005803000050
:020000040000fa
:04015400580300004c
:020000040000fa
:040158005803000048
:020000040000fa
:04015c005803000044
:020000040000fa
:040160005803000040
:020000040000fa
:04016400580300003c
:020000040000fa
:040168005803000038
:020000040000fa
:04016c005803000034
:020000040000fa
:040170005803000030
:020000040000fa
:04017400580300002c
:020000040000fa
:040178005803000028
:020000040000fa
:04017c005803000024
:020000040000fa
:040180005803000020
:020000040000fa
:04018400580300001c
:020000040000fa
:040188005803000018
:020000040000fa
:04018c005803000014
:020000040000fa
:040190005803000010
:020000040000fa
:04019400580300000c
:020000040000fa
:040198005803000008
:020000040000fa
:04019c005803000004
:020000040000fa
:0401a0005803000000
:020000040000fa
:0401a40058030000fc
:020000040000fa
:0401a80058030000f8
:020000040000fa
:0401ac0058030000f4
:020000040000fa
:0401b00058030000f0
:020000040000fa
:0401b40058030000ec
:020000040000fa
:0401b80058030000e8
:020000040000fa
:0401bc0058030000e4
:020000040000fa
:0401c00058030000e0
:020000040000fa
:0401c40058030000dc
:020000040000fa
:0401c80058030000d8
:020000040000fa
:0401cc0058030000d4
:020000040000fa
:0401d00058030000d0
:020000040000fa
:0401d40058030000cc
:020000040000fa
:0401d80058030000c8
:020000040000fa
:0401dc0058030000c4
:020000040000fa
:0401e00058030000c0
:020000040000fa
:0401e40058030000bc
:020000040000fa
:0401e80058030000b8
:020000040000fa
:0401ec0058030000b4
:020000040000fa
:0401f00058030000b0
:020000040000fa
:0401f40058030000ac
:020000040000fa
:0401f80058030000a8
:020000040000fa
:0401fc0058030000a4
:020000040000fa
:04020000580300009f
:020000040000fa
:04020400580300009b
:020000040000fa
:040208005803000097
:020000040000fa
:04020c005803000093
:020000040000fa
:04021000580300008f
:020000040000fa
:04021400580300008b
:020000040000fa
:040218005803000087
:020000040000fa
:04021c005803000083
:020000040000fa
:04022000580300007f
:020000040000fa
:04022400580300007b
:020000040000fa
:040228005803000077
:020000040000fa
:04022c005803000073
:020000040000fa
:04023000580300006f
:020000040000fa
:04023400580300006b
:020000040000fa
:040238005803000067
:020000040000fa
:04023c005803000063
:020000040000fa
:04024000580300005f
:020000040000fa
:04024400580300005b
:020000040000fa
:040248005803000057
:020000040000fa
:04024c005803000053
:020000040000fa
:04025000580300004f
:020000040000fa
:04025400580300004b
:020000040000fa
:040258005803000047
:020000040000fa
:04025c005803000043
:020000040000fa
:04026000580300003f
:020000040000fa
:04026400580300003b
:020000040000fa
:040268005803000037
:020000040000fa
:04026c005803000033
:020000040000fa
:04027000580300002f
:020000040000fa
:04027400580300002b
:020000040000fa
:040278005803000027
:020000040000fa
:04027c005803000023
:020000040000fa
:04028000580300001f
:020000040000fa
:04028400580300001b
:020000040000fa
:040288005803000017
:020000040000fa
:04028c005803000013
:020000040000fa
:04029000580300000f
:020000040000fa
:04029400580300000b
:020000040000fa
:040298005803000007
:020000040000fa
:04029c005803000003
:020000040000fa
:0402a00058030000ff
:020000040000fa
:0402a40058030000fb
:020000040000fa
:0402a80058030000f7
:020000040000fa
:0402ac0058030000f3
:020000040000fa
:0402b00058030000ef
:020000040000fa
:0402b40058030000eb
:020000040000fa
:0402b80058030000e7
:020000040000fa
:0402bc0058030000e3
:020000040000fa
:0402c00058030000df
:020000040000fa
:0402c40058030000db
:020000040000fa
:0402c80058030000d7
:020000040000fa
:0402cc0058030000d3
:020000040000fa
:0402d00058030000cf
:020000040000fa
:0402d40058030000cb
:020000040000fa
:0402d80058030000c7
:020000040000fa
:0402dc0058030000c3
:020000040000fa
:0402e00058030000bf
:020000040000fa
:0402e40058030000bb
:020000040000fa
:0402e80058030000b7
:020000040000fa
:0402ec0058030000b3
:020000040000fa
:0402f00058030000af
:020000040000fa
:0402f40058030000ab
:020000040000fa
:0402f80058030000a7
:020000040000fa
:0402fc0058030000a3
:020000040000fa
:04030000580300009e
:020000040000fa
:04030400580300009a
:020000040000fa
:040308005803000096
:020000040000fa
:04030c005803000092
:020000040000fa
:04031000580300008e
:020000040000fa
:100400004f0021000eff21000e01880000000000b7
:10041000000020000000e000020032000001200087
:100420002002880014000700a30007000000e0007d
:1004300003003a00c07120000100200002003700d4
:100440000000200001002000810f70000100320038
:100450000f000700000020000000e0000200320052
:100460000000020000000000240402000000000060
:100470000040da000000fe00200020000000e00044
:1004800002003200100020009001880000000600e9
:10049000a1028800800478000000eb001f003700f4
:1004a000e284440054a0b4009905ba00e2844400f8
:1004b00054a0b4009906ba00e284440054a0b400e9
:1004c0000006eb00476fde00fd07b200ae018800ba
:1004d000636ce10003003a000ad801000000eb0061
:1004e0000e003700606ce10008003a00004deb00a0
:1004f0000a05e800020039003420ec000af0a000f0
:100500008b05e900f9ff3e00040037006168e10057
:10051000010032000086eb000b00070019c7ba008b
:100520000e04e0001905ba0003003a000a00e000da
:10053000dbff3a0000000600fe07b200ae028800b2
:100540008a047800f5ff37000cd0a300e20f4d00bd
:100550001c00390089027800354dba000a05e80010
:10056000020039003420ec000af0a0008b05e900fd
:100570000f003200254dba000a05e80002003900dc
:100580003420ec000af0a0008b05e90008003200de
:100590000c00e0000600320015cdba000a05e800a4
:1005a000020039003420ec000af0a0008b05e900bd
:1005b0008984e80054a0b4000b00e000e2ff3a0098
:1005c000000006009902ba00055d78008b05e9007d
:1005d000f7ff3200c82ade00055d78008b05e900d0
:1005e000f3ff32000c00e000f1ff320019ddba0029
:1005f000eeff37003600f800809fbe00829fbe00ed
:10060000849fbe00869fbe003200f8003400f800d0
:1006100010002000a0018800100020009001880038
:10062000000000000000fa0000e8a900008080003f
:100630000000e00010003200108080008000780090
:1006400000002800f10107000030ef001180800059
:10065000e0ff2000808f500004003c0010808000ec
:10066000740040001080880008003700f0ff200070
:1006700010808800050037008000eb000000280093
:10068000e201070010002000008088000080fa00ce
:100690003400f9003200f9004f03be004f02be00e3
:1006a0004f01be004f00be003600f90000400600ba
:1006b0000040da000000fe0000000500839f680093
:1006c0000100e00002003d0060001000e080180022
:1006d0000300e00002003d0060011100e08119000c
:1006e000050007004f00e00002003b006000100022
:1006f000e0801800000006006022b800060220001a
:100700000000d0008180d2000482d2008582d20015
:100710000000a0000202520083825a000300310050
:100720000202420083824a000000a1000603e900a1
:08073000f3ff3a00000006008f
:020000040000fa
:100738000200fa00000f7800000420009e007800f4
:10074800808f50000d0036000000280080088800c7
:100758001e0078008000eb000001be0080a8230086
:1007680081032000d3ff070000007800600888009c
:1007780000e8a90020e8a8002300370000042000b2
:100788009e007800808f500010003e001e00780008
:10079800e80f50000d00360000012800800888008e
:1007a8001e0078008000eb000001be0010752000dc
:1007b80071002000bfff0700000078006008880073
:1007c80000e8a90020e8a8000f0037001e00780004
:1007d800e80f50000c003e00000228008008880046
:1007e8001e0078008000eb000001be00a00e2e0065
:1007f80001002000afff07000000780060088800b3
:1008080000e8a90020e8a8000080fa00000006001f
:100818000400fa00000f780011079800007d2000fe
:10082800108088001e00780000004000c0ff07000c
:100838001e009000b50007000080fa0000000600c6
:100848000000fa0049010700401f2000b8ff070018
:100858008000eb00000028006a0107003f01070044
:10086800211c200050102000e9ff0700211c200057
:10087800c00d2000e6ff0700211c2000e00a200030
:10088800e3ff0700211c200020082000e0ff0700ec
:100898006109200020092000ddff07006109200010
:1008a800400a2000daff070061092000e00a200062
:1008b800d7ff0700c112200020092000d4ff07003d
:1008c80061092000e00a2000d1ff0700211c200058
:1008d80020082000ceff0700211c2000200820004f
:1008e800cbff0700211c200020092000c8ff0700bb
:1008f800211c2000900e2000c5ff0700211c2000ad
:10090800c00d2000c2ff0700211c2000e00a2000c3
:10091800bfff07006109200020092000bcff070075
:1009280061092000400a2000b9ff07006109200082
:10093800e00a2000b6ff0700c1122000300c20009a
:10094800b3ff070061092000900e2000b0ff0700e8
:10095800211c2000300c2000adff0700c112200030
:10096800300c2000aaff070061092000c00d2000fc
:10097800a7ff070061092000900e2000a4ff0700d0
:1009880061092000c00d2000a1ff070061092000b7
:10099800300c20009eff0700c112200050102000dc
:1009a8009bff070061092000c00d200098ff070089
:1009b80061092000300c200095ff0700c1122000bb
:1009c800e00a200092ff0700c1122000e00a200080
:1009d8008fff070061092000300c20008cff070002
:1009e800c1122000c00d200089ff07006109200006
:1009f800e00a200086ff0700c1122000200920001d
:100a080083ff070061092000e00a200080ff07003b
:100a180061092000200920007dff0700c112200085
:100a2800200820007aff0700c112200020082000bb
:100a380077ff0700610920002008200074ff0700e5
:100a4800c1122000e00a200071ff070061092000a0
:100a5800c00d20006eff070061092000300c200047
:100a68006bff0700bf000700c01220002700070027
:100a7800ba000700c1122000e00a200064ff070046
:100a880061092000c00d200061ff070061092000f6
:100a9800300c20005eff070061092000c00d200017
:100aa8005bff070061092000900e200058ff070037
:100ab80061092000700f200055ff07006109200020
:100ac800c00d200052ff070061092000e00a200045
:100ad8004fff0700c1122000300c20004cff070018
:100ae800610920002008200049ff0700211c200080
:100af800e00a200046ff07009a0007000071220064
:100b0800020007009500070055ff37000080080025
:100b180002000000c51c09000000000000000000e1
:100b280000000600f300200083801000130020005e
:100b3800018009008301d30000f0a700ac05040080
:100b480000000000a1708000ae0504000000000055
:100b5800017080000200a700be050400000000002c
:100b6800f2ff2f008301690081806100c005040045
:100b7800000000008180710000f0a700cc0504008f
:100b880000000000a1708800ce05040000000000ed
:100b9800017088000000000000000600f30020003b
:100ba8008380100013002000018009008301d30016
:100bb80000f0a700e80504000000000011718000a3
:100bc800ea05040000000000717080000200a70020
:100bd800fa05040000000000f2ff2f0083016900fd
:100be80081806100fc050400000000008180710024
:100bf80000f0a7000806040000000000117188003a
:100c08000a0604000000000071708800000000005f
:100c180000000600f300200083801000130020006d
:100c2800018009008301d30000f0a7002606040014
:100c38000000000004718000f57080002a0604009e
:100c48000000000064708000557080000200a7005a
:100c58003c0604000000000004827100f2ff2f002f
:100c680083016900858261004406040000000000d9
:100c780085827100f2ff2f00830169000482610000
:100c880000f0a7005206040000000000047188006c
:100c9800f5708800560604000000000064708800a3
:100ca800557088000000000000000600f3002000d6
:100cb8008380100013002000018009008301d30005
:100cc80000f0a7007006040000000000b17080006a
:100cd8007206040000000000117080000200a700e6
:100ce8008206040000000000f2ff2f008301690063
:100cf800818061008406040000000000818071008a
:100d080000f0a7009006040000000000b170880001
:100d18009206040000000000117088000000000026
:100d28000000060000f0a700a20604000000000072
:100d3800b0708000a406040000000000107080005d
:100d4800f200200082804000018009000000d300ea
:100d5800120020000200600000000600c3e8a8009e
:100d680000000600c3e8a9000000060014aea900b0
:100d780014cea90015aea90022aea90022cea90062
:100d880023aea90016aea90016cea90017aea8007a
:100d98002174200062042000730520008248780036
:100da8008348780042c7a90000802000903388005b
:100db80090002000a0338800006022006036880080
:100dc8002174200062042000730520008248780006
:100dd8008348780042c7a800040009004013800037
:100de8000000200000138800f05320001013880032
:100df800000020002013880060c2a90061e2a8005a
:100e08000000060001f0a10001d0a10001c0a0006f
:100e1800810070004013800017aea90041138800bc
:100e2800100009000000000017aea800000006002e
:020000040000fa
:100e38000010000002000000800000000210000006
:100e48000200000082000000d0070000000000003f
:020000040000fa
:04af3000f8ff000026
:020000040000fa
:04af3800fbff00001b
:020000040000fa
:04af40009fff00006f
:00000001FF
