:020000040000fa
:080000000002040000000000f2
:020000040000fa
:040008005e03000093
:020000040000fa
:04000c005e0300008f
:020000040000fa
:040010005e0300008b
:020000040000fa
:040014005e03000087
:020000040000fa
:040018005e03000083
:020000040000fa
:04001c005e0300007f
:020000040000fa
:040020005e0300007b
:020000040000fa
:040024005e03000077
:020000040000fa
:040028005e03000073
:020000040000fa
:04002c005e0300006f
:020000040000fa
:040030005e0300006b
:020000040000fa
:040034005e03000067
:020000040000fa
:040038005e03000063
:020000040000fa
:04003c005e0300005f
:020000040000fa
:040040005e0300005b
:020000040000fa
:04004400fa020000bc
:020000040000fa
:040048005e03000053
:020000040000fa
:04004c005e0300004f
:020000040000fa
:040050005e0300004b
:020000040000fa
:040054005e03000047
:020000040000fa
:040058005e03000043
:020000040000fa
:04005c005e0300003f
:020000040000fa
:040060005e0300003b
:020000040000fa
:040064005e03000037
:020000040000fa
:040068005e03000033
:020000040000fa
:04006c005e0300002f
:020000040000fa
:040070005e0300002b
:020000040000fa
:040074005e03000027
:020000040000fa
:040078005e03000023
:020000040000fa
:04007c005e0300001f
:020000040000fa
:040080005e0300001b
:020000040000fa
:040084005e03000017
:020000040000fa
:040088005e03000013
:020000040000fa
:04008c005e0300000f
:020000040000fa
:040090005e0300000b
:020000040000fa
:040094005e03000007
:020000040000fa
:040098005e03000003
:020000040000fa
:04009c005e030000ff
:020000040000fa
:0400a0005e030000fb
:020000040000fa
:0400a4005e030000f7
:020000040000fa
:0400a8005e030000f3
:020000040000fa
:0400ac005e030000ef
:020000040000fa
:0400b0005e030000eb
:020000040000fa
:0400b4005e030000e7
:020000040000fa
:0400b8005e030000e3
:020000040000fa
:0400bc005e030000df
:020000040000fa
:0400c0005e030000db
:020000040000fa
:0400c4005e030000d7
:020000040000fa
:0400c8005e030000d3
:020000040000fa
:0400cc005e030000cf
:020000040000fa
:0400d0005e030000cb
:020000040000fa
:0400d4005e030000c7
:020000040000fa
:0400d8005e030000c3
:020000040000fa
:0400dc005e030000bf
:020000040000fa
:0400e0005e030000bb
:020000040000fa
:0400e4005e030000b7
:020000040000fa
:0400e8005e030000b3
:020000040000fa
:0400ec005e030000af
:020000040000fa
:0400f0005e030000ab
:020000040000fa
:0400f4005e030000a7
:020000040000fa
:0400f8005e030000a3
:020000040000fa
:0400fc005e0300009f
:020000040000fa
:040100005e0300009a
:020000040000fa
:040104005e03000096
:020000040000fa
:040108005e03000092
:020000040000fa
:04010c005e0300008e
:020000040000fa
:040110005e0300008a
:020000040000fa
:040114005e03000086
:020000040000fa
:040118005e03000082
:020000040000fa
:04011c005e0300007e
:020000040000fa
:040120005e0300007a
:020000040000fa
:040124005e03000076
:020000040000fa
:040128005e03000072
:020000040000fa
:04012c005e0300006e
:020000040000fa
:040130005e0300006a
:020000040000fa
:040134005e03000066
:020000040000fa
:040138005e03000062
:020000040000fa
:04013c005e0300005e
:020000040000fa
:040140005e0300005a
:020000040000fa
:040144005e03000056
:020000040000fa
:040148005e03000052
:020000040000fa
:04014c005e0300004e
:020000040000fa
:040150005e0300004a
:020000040000fa
:040154005e03000046
:020000040000fa
:040158005e03000042
:020000040000fa
:04015c005e0300003e
:020000040000fa
:040160005e0300003a
:020000040000fa
:040164005e03000036
:020000040000fa
:040168005e03000032
:020000040000fa
:04016c005e0300002e
:020000040000fa
:040170005e0300002a
:020000040000fa
:040174005e03000026
:020000040000fa
:040178005e03000022
:020000040000fa
:04017c005e0300001e
:020000040000fa
:040180005e0300001a
:020000040000fa
:040184005e03000016
:020000040000fa
:040188005e03000012
:020000040000fa
:04018c005e0300000e
:020000040000fa
:040190005e0300000a
:020000040000fa
:040194005e03000006
:020000040000fa
:040198005e03000002
:020000040000fa
:04019c005e030000fe
:020000040000fa
:0401a0005e030000fa
:020000040000fa
:0401a4005e030000f6
:020000040000fa
:0401a8005e030000f2
:020000040000fa
:0401ac005e030000ee
:020000040000fa
:0401b0005e030000ea
:020000040000fa
:0401b4005e030000e6
:020000040000fa
:0401b8005e030000e2
:020000040000fa
:0401bc005e030000de
:020000040000fa
:0401c0005e030000da
:020000040000fa
:0401c4005e030000d6
:020000040000fa
:0401c8005e030000d2
:020000040000fa
:0401cc005e030000ce
:020000040000fa
:0401d0005e030000ca
:020000040000fa
:0401d4005e030000c6
:020000040000fa
:0401d8005e030000c2
:020000040000fa
:0401dc005e030000be
:020000040000fa
:0401e0005e030000ba
:020000040000fa
:0401e4005e030000b6
:020000040000fa
:0401e8005e030000b2
:020000040000fa
:0401ec005e030000ae
:020000040000fa
:0401f0005e030000aa
:020000040000fa
:0401f4005e030000a6
:020000040000fa
:0401f8005e030000a2
:020000040000fa
:0401fc005e0300009e
:020000040000fa
:040200005e03000099
:020000040000fa
:040204005e03000095
:020000040000fa
:040208005e03000091
:020000040000fa
:04020c005e0300008d
:020000040000fa
:040210005e03000089
:020000040000fa
:040214005e03000085
:020000040000fa
:040218005e03000081
:020000040000fa
:04021c005e0300007d
:020000040000fa
:040220005e03000079
:020000040000fa
:040224005e03000075
:020000040000fa
:040228005e03000071
:020000040000fa
:04022c005e0300006d
:020000040000fa
:040230005e03000069
:020000040000fa
:040234005e03000065
:020000040000fa
:040238005e03000061
:020000040000fa
:04023c005e0300005d
:020000040000fa
:040240005e03000059
:020000040000fa
:040244005e03000055
:020000040000fa
:040248005e03000051
:020000040000fa
:04024c005e0300004d
:020000040000fa
:040250005e03000049
:020000040000fa
:040254005e03000045
:020000040000fa
:040258005e03000041
:020000040000fa
:04025c005e0300003d
:020000040000fa
:040260005e03000039
:020000040000fa
:040264005e03000035
:020000040000fa
:040268005e03000031
:020000040000fa
:04026c005e0300002d
:020000040000fa
:040270005e03000029
:020000040000fa
:040274005e03000025
:020000040000fa
:040278005e03000021
:020000040000fa
:04027c005e0300001d
:020000040000fa
:040280005e03000019
:020000040000fa
:040284005e03000015
:020000040000fa
:040288005e03000011
:020000040000fa
:04028c005e0300000d
:020000040000fa
:040290005e03000009
:020000040000fa
:040294005e03000005
:020000040000fa
:040298005e03000001
:020000040000fa
:04029c005e030000fd
:020000040000fa
:0402a0005e030000f9
:020000040000fa
:0402a4005e030000f5
:020000040000fa
:0402a8005e030000f1
:020000040000fa
:0402ac005e030000ed
:020000040000fa
:0402b0005e030000e9
:020000040000fa
:0402b4005e030000e5
:020000040000fa
:0402b8005e030000e1
:020000040000fa
:0402bc005e030000dd
:020000040000fa
:0402c0005e030000d9
:020000040000fa
:0402c4005e030000d5
:020000040000fa
:0402c8005e030000d1
:020000040000fa
:0402cc005e030000cd
:020000040000fa
:0402d0005e030000c9
:020000040000fa
:0402d4005e030000c5
:020000040000fa
:0402d8005e030000c1
:020000040000fa
:0402dc005e030000bd
:020000040000fa
:0402e0005e030000b9
:020000040000fa
:0402e4005e030000b5
:020000040000fa
:0402e8005e030000b1
:020000040000fa
:0402ec005e030000ad
:020000040000fa
:0402f0005e030000a9
:020000040000fa
:0402f4005e030000a5
:020000040000fa
:0402f8005e030000a1
:020000040000fa
:0402fc005e0300009d
:020000040000fa
:040300005e03000098
:020000040000fa
:040304005e03000094
:020000040000fa
:040308005e03000090
:020000040000fa
:04030c005e0300008c
:020000040000fa
:040310005e03000088
:020000040000fa
:100400004f0021000eff21000e01880000000000b7
:10041000000020000000e000020032000001200087
:100420002002880014000700a60007000000e0007a
:1004300003003a006066200001002000020037003f
:100440000000200001002000810f70000100320038
:100450000f000700000020000000e0000200320052
:100460000000020000000000b805020000000000cb
:100470000040da000000fe00200020000000e00044
:1004800002003200100020009001880000000600e9
:10049000a1028800800478000000eb001f003700f4
:1004a000e284440054a0b4009905ba00e2844400f8
:1004b00054a0b4009906ba00e284440054a0b400e9
:1004c0000006eb00476fde00fd07b200ae018800ba
:1004d000636ce10003003a000ad801000000eb0061
:1004e0000e003700606ce10008003a00004deb00a0
:1004f0000a05e800020039003420ec000af0a000f0
:100500008b05e900f9ff3e00040037006168e10057
:10051000010032000086eb000b00070019c7ba008b
:100520000e04e0001905ba0003003a000a00e000da
:10053000dbff3a0000000600fe07b200ae028800b2
:100540008a047800f5ff37000cd0a300e20f4d00bd
:100550001c00390089027800354dba000a05e80010
:10056000020039003420ec000af0a0008b05e900fd
:100570000f003200254dba000a05e80002003900dc
:100580003420ec000af0a0008b05e90008003200de
:100590000c00e0000600320015cdba000a05e800a4
:1005a000020039003420ec000af0a0008b05e900bd
:1005b0008984e80054a0b4000b00e000e2ff3a0098
:1005c000000006009902ba00055d78008b05e9007d
:1005d000f7ff3200c82ade00055d78008b05e900d0
:1005e000f3ff32000c00e000f1ff320019ddba0029
:1005f000eeff37003600f800809fbe00829fbe00ed
:10060000849fbe00869fbe003200f8003400f800d0
:1006100010002000a0018800100020009001880038
:10062000000000000000fa0000e8a900118080002e
:10063000e0ff2000808f50000400340010002000f4
:1006400000808800f0ff200010808800108080006b
:100650000000e00002003c000030ef000230ef003c
:10066000108080008000780000002800f300070060
:10067000008080000000e00004003a00108080004c
:100680000020b00010808800030037001080800038
:100690000020b100108088000080fa003400f900ca
:1006a0003200f9004f03be004f02be004f01be00f2
:1006b0004f00be003600f900004006000040da009e
:1006c0000000fe0000000500839f68000100e000bc
:1006d00002003d0060001000e08018000300e00010
:1006e00002003d0060011100e081190005000700d3
:1006f0004f00e00002003b0060001000e0801800a6
:10070000000006006022b800060220000000d000b1
:100710008180d2000482d2008582d2000000a00035
:100720000202520083825a0003003100020242009a
:1007300083824a000000a1000603e900f3ff3a00ab
:0407400000000600af
:020000040000fa
:100744000080080002000000c51c09000000000031
:100754000000000000000600f30020008380100069
:1007640013002000018009008301d30000f0a700da
:10077400c403040000000000a1708000c60304004c
:1007840000000000017080000200a700d6030400ee
:1007940000000000f2ff2f008301690081806100e6
:1007a400d8030400000000008180710000f0a7005d
:1007b400e403040000000000a1708800e6030400c4
:1007c4000000000001708800000000000000060026
:1007d400f300200083801000130020000180090032
:1007e4008301d30000f0a70000040400000000000f
:1007f4001171800002040400000000007170800088
:100804000200a7001204040000000000f2ff2f0001
:100814008301690081806100140404000000000069
:100824008180710000f0a700200404000000000093
:100834001171880022040400000000007170880017
:100844000000000000000600f30020008380100078
:1008540013002000018009008301d30000f0a700e9
:100864003e0404000000000004718000f570800064
:100874004204040000000000647080005570800091
:100884000200a70054040400000000000482710068
:10089400f2ff2f0083016900858261005c0404007b
:1008a4000000000085827100f2ff2f0083016900bf
:1008b4000482610000f0a7006a0404000000000044
:1008c40004718800f57088006e04040000000000c4
:1008d4006470880055708800000000000000060065
:1008e400f300200083801000130020000180090021
:1008f4008301d30000f0a700880404000000000076
:10090400b17080008a0404000000000011708000af
:100914000200a7009a04040000000000f2ff2f0068
:1009240083016900818061009c04040000000000d0
:100934008180710000f0a700a804040000000000fa
:10094400b1708800aa04040000000000117088003f
:10095400000000000000060000f0a700ba04040034
:1009640000000000b0708000bc040400000000001f
:1009740010708000f2002000828040000180090095
:100984000000d300120020000200600000000600f6
:10099400c3e8a80000000600c3e8a90000000600a0
:1009a40014aea90014cea90015aea90022aea90068
:1009b40022cea90023aea90016aea90016cea90026
:1009c40017aea800217420006204200073052000e3
:1009d400824878008348780042c7a900008020003c
:1009e4009033880090002000a0338800006022002b
:1009f4006036880021742000620420007305200002
:100a0400824878008348780042c7a800040009009f
:100a1400401380000000200000138800f0532000e1
:100a240010138800000020002013880060c2a90071
:100a340061e2a8000000060001f0a10001d0a100bd
:100a440001c0a000810070004013800017aea9000f
:100a540041138800100009000000000017aea80030
:100a6400000006000200fa00000f780000042000d5
:100a74009e007800808f50000d0036000000280092
:100a8400800888001e0078008000eb000001be0092
:100a940080a82300810320000aff070000007800db
:100aa4006008880000e8a90020e8a80023003700b7
:100ab400000420009e007800808f500010003e004b
:100ac4001e007800e80f50000d00360000012800d9
:100ad400800888001e0078008000eb000001be0042
:100ae4001075200071002000f6fe07000000780059
:100af4006008880000e8a90020e8a8000f0037007b
:100b04001e007800e80f50000c003e000002280090
:100b1400800888001e0078008000eb000001be0001
:100b2400a00e2e0001002000e6fe07000000780061
:100b34006008880000e8a90020e8a8000080fa0006
:100b4400000006000400fa00000f78001107980066
:100b54001e0078004400dd00c2ff07001e00900064
:100b6400f7fe07000080fa00000006000000fa000b
:100b74008bff0700401f2000baff07008000eb0036
:100b840000002800acff070081ff07004138200067
:100b9400b0202000ebff070041382000801b20001c
:100ba400e8ff070041382000d0152000e5ff0700ca
:100bb4004138200050102000e2ff0700c11220003d
:100bc40050122000dfff0700c11220009014200003
:100bd400dcff0700c1122000d0152000d9ff070058
:100be4008125200050122000d6ff0700c1122000ea
:100bf400d0152000d3ff07004138200050102000fa
:100c0400d0ff07004138200050102000cdff07001e
:100c14004138200050122000caff0700413820004c
:100c2400d01e2000c7ff070041382000801b200091
:100c3400c4ff070041382000d0152000c1ff070081
:100c4400c112200050122000beff0700c112200074
:100c540090142000bbff0700c1122000d015200013
:100c6400b8ff07008125200080182000b5ff070089
:100c7400c1122000d01e2000b2ff0700413820001e
:100c840080182000afff0700812520008018200075
:100c9400acff0700c1122000801b2000a9ff070041
:100ca400c1122000801b2000a6ff0700c1122000f3
:100cb400d01e2000a3ff0700c112200080182000ce
:080cc400a0ff0700b1ff37009b
:020000040000fa
:100ccc000010000004000000800000000000000084
:020000040000fa
:04af3000f8ff000026
:020000040000fa
:04af3800fbff00001b
:020000040000fa
:04af40009fff00006f
:00000001FF
