:020000040000fa
:080000000002040000000000f2
:020000040000fa
:040008006a03000087
:020000040000fa
:04000c006a03000083
:020000040000fa
:040010006a0300007f
:020000040000fa
:040014006a0300007b
:020000040000fa
:040018006a03000077
:020000040000fa
:04001c006a03000073
:020000040000fa
:040020006a0300006f
:020000040000fa
:040024006a0300006b
:020000040000fa
:040028006a03000067
:020000040000fa
:04002c006a03000063
:020000040000fa
:040030006a0300005f
:020000040000fa
:040034006a0300005b
:020000040000fa
:040038006a03000057
:020000040000fa
:04003c006a03000053
:020000040000fa
:040040006a0300004f
:020000040000fa
:04004400fa020000bc
:020000040000fa
:040048006a03000047
:020000040000fa
:04004c006a03000043
:020000040000fa
:040050006a0300003f
:020000040000fa
:040054006a0300003b
:020000040000fa
:040058006a03000037
:020000040000fa
:04005c006a03000033
:020000040000fa
:040060006a0300002f
:020000040000fa
:040064006a0300002b
:020000040000fa
:040068006a03000027
:020000040000fa
:04006c006a03000023
:020000040000fa
:040070006a0300001f
:020000040000fa
:040074006a0300001b
:020000040000fa
:040078006a03000017
:020000040000fa
:04007c006a03000013
:020000040000fa
:040080006a0300000f
:020000040000fa
:040084006a0300000b
:020000040000fa
:040088006a03000007
:020000040000fa
:04008c006a03000003
:020000040000fa
:040090006a030000ff
:020000040000fa
:040094006a030000fb
:020000040000fa
:040098006a030000f7
:020000040000fa
:04009c006a030000f3
:020000040000fa
:0400a0006a030000ef
:020000040000fa
:0400a4006a030000eb
:020000040000fa
:0400a8006a030000e7
:020000040000fa
:0400ac006a030000e3
:020000040000fa
:0400b0006a030000df
:020000040000fa
:0400b4006a030000db
:020000040000fa
:0400b8006a030000d7
:020000040000fa
:0400bc006a030000d3
:020000040000fa
:0400c0006a030000cf
:020000040000fa
:0400c4006a030000cb
:020000040000fa
:0400c8006a030000c7
:020000040000fa
:0400cc006a030000c3
:020000040000fa
:0400d0006a030000bf
:020000040000fa
:0400d4006a030000bb
:020000040000fa
:0400d8006a030000b7
:020000040000fa
:0400dc006a030000b3
:020000040000fa
:0400e0006a030000af
:020000040000fa
:0400e4006a030000ab
:020000040000fa
:0400e8006a030000a7
:020000040000fa
:0400ec006a030000a3
:020000040000fa
:0400f0006a0300009f
:020000040000fa
:0400f4006a0300009b
:020000040000fa
:0400f8006a03000097
:020000040000fa
:0400fc006a03000093
:020000040000fa
:040100006a0300008e
:020000040000fa
:040104006a0300008a
:020000040000fa
:040108006a03000086
:020000040000fa
:04010c006a03000082
:020000040000fa
:040110006a0300007e
:020000040000fa
:040114006a0300007a
:020000040000fa
:040118006a03000076
:020000040000fa
:04011c006a03000072
:020000040000fa
:040120006a0300006e
:020000040000fa
:040124006a0300006a
:020000040000fa
:040128006a03000066
:020000040000fa
:04012c006a03000062
:020000040000fa
:040130006a0300005e
:020000040000fa
:040134006a0300005a
:020000040000fa
:040138006a03000056
:020000040000fa
:04013c006a03000052
:020000040000fa
:040140006a0300004e
:020000040000fa
:040144006a0300004a
:020000040000fa
:040148006a03000046
:020000040000fa
:04014c006a03000042
:020000040000fa
:040150006a0300003e
:020000040000fa
:040154006a0300003a
:020000040000fa
:040158006a03000036
:020000040000fa
:04015c006a03000032
:020000040000fa
:040160006a0300002e
:020000040000fa
:040164006a0300002a
:020000040000fa
:040168006a03000026
:020000040000fa
:04016c006a03000022
:020000040000fa
:040170006a0300001e
:020000040000fa
:040174006a0300001a
:020000040000fa
:040178006a03000016
:020000040000fa
:04017c006a03000012
:020000040000fa
:040180006a0300000e
:020000040000fa
:040184006a0300000a
:020000040000fa
:040188006a03000006
:020000040000fa
:04018c006a03000002
:020000040000fa
:040190006a030000fe
:020000040000fa
:040194006a030000fa
:020000040000fa
:040198006a030000f6
:020000040000fa
:04019c006a030000f2
:020000040000fa
:0401a0006a030000ee
:020000040000fa
:0401a4006a030000ea
:020000040000fa
:0401a8006a030000e6
:020000040000fa
:0401ac006a030000e2
:020000040000fa
:0401b0006a030000de
:020000040000fa
:0401b4006a030000da
:020000040000fa
:0401b8006a030000d6
:020000040000fa
:0401bc006a030000d2
:020000040000fa
:0401c0006a030000ce
:020000040000fa
:0401c4006a030000ca
:020000040000fa
:0401c8006a030000c6
:020000040000fa
:0401cc006a030000c2
:020000040000fa
:0401d0006a030000be
:020000040000fa
:0401d4006a030000ba
:020000040000fa
:0401d8006a030000b6
:020000040000fa
:0401dc006a030000b2
:020000040000fa
:0401e0006a030000ae
:020000040000fa
:0401e4006a030000aa
:020000040000fa
:0401e8006a030000a6
:020000040000fa
:0401ec006a030000a2
:020000040000fa
:0401f0006a0300009e
:020000040000fa
:0401f4006a0300009a
:020000040000fa
:0401f8006a03000096
:020000040000fa
:0401fc006a03000092
:020000040000fa
:040200006a0300008d
:020000040000fa
:040204006a03000089
:020000040000fa
:040208006a03000085
:020000040000fa
:04020c006a03000081
:020000040000fa
:040210006a0300007d
:020000040000fa
:040214006a03000079
:020000040000fa
:040218006a03000075
:020000040000fa
:04021c006a03000071
:020000040000fa
:040220006a0300006d
:020000040000fa
:040224006a03000069
:020000040000fa
:040228006a03000065
:020000040000fa
:04022c006a03000061
:020000040000fa
:040230006a0300005d
:020000040000fa
:040234006a03000059
:020000040000fa
:040238006a03000055
:020000040000fa
:04023c006a03000051
:020000040000fa
:040240006a0300004d
:020000040000fa
:040244006a03000049
:020000040000fa
:040248006a03000045
:020000040000fa
:04024c006a03000041
:020000040000fa
:040250006a0300003d
:020000040000fa
:040254006a03000039
:020000040000fa
:040258006a03000035
:020000040000fa
:04025c006a03000031
:020000040000fa
:040260006a0300002d
:020000040000fa
:040264006a03000029
:020000040000fa
:040268006a03000025
:020000040000fa
:04026c006a03000021
:020000040000fa
:040270006a0300001d
:020000040000fa
:040274006a03000019
:020000040000fa
:040278006a03000015
:020000040000fa
:04027c006a03000011
:020000040000fa
:040280006a0300000d
:020000040000fa
:040284006a03000009
:020000040000fa
:040288006a03000005
:020000040000fa
:04028c006a03000001
:020000040000fa
:040290006a030000fd
:020000040000fa
:040294006a030000f9
:020000040000fa
:040298006a030000f5
:020000040000fa
:04029c006a030000f1
:020000040000fa
:0402a0006a030000ed
:020000040000fa
:0402a4006a030000e9
:020000040000fa
:0402a8006a030000e5
:020000040000fa
:0402ac006a030000e1
:020000040000fa
:0402b0006a030000dd
:020000040000fa
:0402b4006a030000d9
:020000040000fa
:0402b8006a030000d5
:020000040000fa
:0402bc006a030000d1
:020000040000fa
:0402c0006a030000cd
:020000040000fa
:0402c4006a030000c9
:020000040000fa
:0402c8006a030000c5
:020000040000fa
:0402cc006a030000c1
:020000040000fa
:0402d0006a030000bd
:020000040000fa
:0402d4006a030000b9
:020000040000fa
:0402d8006a030000b5
:020000040000fa
:0402dc006a030000b1
:020000040000fa
:0402e0006a030000ad
:020000040000fa
:0402e4006a030000a9
:020000040000fa
:0402e8006a030000a5
:020000040000fa
:0402ec006a030000a1
:020000040000fa
:0402f0006a0300009d
:020000040000fa
:0402f4006a03000099
:020000040000fa
:0402f8006a03000095
:020000040000fa
:0402fc006a03000091
:020000040000fa
:040300006a0300008c
:020000040000fa
:040304006a03000088
:020000040000fa
:040308006a03000084
:020000040000fa
:04030c006a03000080
:020000040000fa
:040310006a0300007c
:020000040000fa
:100400004f0021000eff21000e01880000000000b7
:10041000000020000000e000020032000001200087
:100420002002880014000700ac0007000000e00074
:1004300003003a0080512000010020000200370034
:100440000000200001002000810f70000100320038
:100450000f000700000020000000e0000200320052
:100460000000020000000000f6040200000000008e
:100470000040da000000fe00200020000000e00044
:1004800002003200100020009001880000000600e9
:10049000a1028800800478000000eb001f003700f4
:1004a000e284440054a0b4009905ba00e2844400f8
:1004b00054a0b4009906ba00e284440054a0b400e9
:1004c0000006eb00476fde00fd07b200ae018800ba
:1004d000636ce10003003a000ad801000000eb0061
:1004e0000e003700606ce10008003a00004deb00a0
:1004f0000a05e800020039003420ec000af0a000f0
:100500008b05e900f9ff3e00040037006168e10057
:10051000010032000086eb000b00070019c7ba008b
:100520000e04e0001905ba0003003a000a00e000da
:10053000dbff3a0000000600fe07b200ae028800b2
:100540008a047800f5ff37000cd0a300e20f4d00bd
:100550001c00390089027800354dba000a05e80010
:10056000020039003420ec000af0a0008b05e900fd
:100570000f003200254dba000a05e80002003900dc
:100580003420ec000af0a0008b05e90008003200de
:100590000c00e0000600320015cdba000a05e800a4
:1005a000020039003420ec000af0a0008b05e900bd
:1005b0008984e80054a0b4000b00e000e2ff3a0098
:1005c000000006009902ba00055d78008b05e9007d
:1005d000f7ff3200c82ade00055d78008b05e900d0
:1005e000f3ff32000c00e000f1ff320019ddba0029
:1005f000eeff37003600f800809fbe00829fbe00ed
:10060000849fbe00869fbe003200f8003400f800d0
:1006100010002000a0018800100020009001880038
:10062000000000000000fa0000e8a900118080002e
:10063000e0ff2000808f5000070034008000eb00b6
:100640000000eb005c000700100020000080880024
:10065000f0ff200010808800108080000000e00083
:1006600005003c00110020000000eb0052000700d4
:100670000030ef000230ef00108080008000780032
:100680000000280096000700008080000000e000c5
:1006900004003a00108080000000e800108088000c
:1006a00003003700108080000000e90010808800ff
:1006b0000080fa003400f9003200f9004f03be0058
:1006c0004f02be004f01be004f00be003600f900d1
:1006d000004006000040da000000fe0000000500b7
:1006e000839f68000100e00002003d0060001000f0
:1006f000e08018000300e00002003d0060011100ee
:10070000e0811900050007004f00e00002003b00f7
:1007100060001000e0801800000006006022b800b1
:10072000060220000000d0008180d2000482d200a6
:100730008582d2000000a0000202520083825a008b
:10074000030031000202420083824a000000a1003f
:0c0750000603e900f3ff3a000000060079
:020000040000fa
:10075c000080080002000000c51c09000000000019
:10076c00000000000000060013002000f200200032
:10077c0002001000008009008301d300a0708000eb
:10078c000100a700d603040000000000f2ff2f00b8
:10079c008301690000806100d803040000000000a0
:1007ac0000807100a070880000000600130020007b
:1007bc00f200200002001000008009008301d30029
:1007cc00b07080000100a700f803040000000000d6
:1007dc00f2ff2f008301690000806100fa0304001e
:1007ec000000000000807100b0708800000006005e
:1007fc0013002000f200200002001000008009000d
:10080c008301d300107180000100a7001a040400ba
:10081c0000000000f2ff2f008301690000806100de
:10082c001c0404000000000000807100107188009e
:10083c0000000600c3e8a8000000060014aea900e2
:10084c0014cea90015aea90022aea90022cea90093
:10085c0023aea90016aea90016cea90017aea800ab
:10086c002174200062042000730520008248780067
:10087c008348780042c7a90000802000903388008c
:10088c0090002000a03388000060220060368800b1
:10089c002174200062042000730520008248780037
:1008ac008348780042c7a800040009004013800068
:1008bc000000200000138800f05320001013880063
:1008cc00000020002013880060c2a90061e2a8008b
:1008dc000000060001f0a10001d0a10001c0a000a1
:1008ec00810070004013800017aea90041138800ee
:1008fc00100009000000000017aea8000000060060
:10090c000200fa00000f7800000420009e0078001e
:10091c00808f50000d0036000000280080088800f1
:10092c001e0078008000eb000001be0080a82300b0
:10093c008103200067ff0700000078006008880032
:10094c0000e8a90020e8a8002300370000042000dc
:10095c009e007800808f500010003e001e00780032
:10096c00e80f50000d0036000001280080088800b8
:10097c001e0078008000eb000001be001075200006
:10098c007100200053ff0700000078006008880009
:10099c0000e8a90020e8a8000f0037001e0078002e
:1009ac00e80f50000c003e00000228008008880070
:1009bc001e0078008000eb000001be00a00e2e008f
:1009cc000100200043ff0700000078006008880049
:1009dc0000e8a90020e8a8000080fa00000006004a
:1009ec000000fa008000eb000000eb005eff070047
:1009fc008000eb000000eb007dff070000c4290025
:100a0c00bfff07008dff07008aff0700f1ff2000e2
:100a1c0000002800afff0700100020004cff07006b
:040a2c00fdff370093
:020000040000fa
:100a30000010000002000000800000000210000012
:100a40000200000082000000ff0f00000000000014
:020000040000fa
:04af3000f8ff000026
:020000040000fa
:04af3800fbff00001b
:020000040000fa
:04af40009fff00006f
:00000001FF
