:020000040000fa
:080000000002040000000000f2
:020000040000fa
:0400080016040000da
:020000040000fa
:04000c0016040000d6
:020000040000fa
:0400100016040000d2
:020000040000fa
:0400140016040000ce
:020000040000fa
:0400180016040000ca
:020000040000fa
:04001c0016040000c6
:020000040000fa
:0400200016040000c2
:020000040000fa
:0400240016040000be
:020000040000fa
:0400280016040000ba
:020000040000fa
:04002c0016040000b6
:020000040000fa
:0400300016040000b2
:020000040000fa
:0400340016040000ae
:020000040000fa
:0400380016040000aa
:020000040000fa
:04003c0016040000a6
:020000040000fa
:0400400016040000a2
:020000040000fa
:04004400fa020000bc
:020000040000fa
:04004800160400009a
:020000040000fa
:04004c001604000096
:020000040000fa
:040050001604000092
:020000040000fa
:04005400160400008e
:020000040000fa
:04005800160400008a
:020000040000fa
:04005c001604000086
:020000040000fa
:040060001604000082
:020000040000fa
:04006400160400007e
:020000040000fa
:04006800160400007a
:020000040000fa
:04006c001604000076
:020000040000fa
:040070001604000072
:020000040000fa
:04007400160400006e
:020000040000fa
:04007800160400006a
:020000040000fa
:04007c001604000066
:020000040000fa
:040080001604000062
:020000040000fa
:04008400160400005e
:020000040000fa
:04008800160400005a
:020000040000fa
:04008c001604000056
:020000040000fa
:040090001604000052
:020000040000fa
:04009400160400004e
:020000040000fa
:04009800160400004a
:020000040000fa
:04009c001604000046
:020000040000fa
:0400a0001604000042
:020000040000fa
:0400a400f60300005f
:020000040000fa
:0400a800160400003a
:020000040000fa
:0400ac001604000036
:020000040000fa
:0400b0001604000032
:020000040000fa
:0400b400160400002e
:020000040000fa
:0400b800160400002a
:020000040000fa
:0400bc001604000026
:020000040000fa
:0400c0001604000022
:020000040000fa
:0400c400160400001e
:020000040000fa
:0400c800160400001a
:020000040000fa
:0400cc001604000016
:020000040000fa
:0400d0001604000012
:020000040000fa
:0400d400160400000e
:020000040000fa
:0400d800160400000a
:020000040000fa
:0400dc001604000006
:020000040000fa
:0400e0001604000002
:020000040000fa
:0400e40016040000fe
:020000040000fa
:0400e80016040000fa
:020000040000fa
:0400ec0016040000f6
:020000040000fa
:0400f00016040000f2
:020000040000fa
:0400f40016040000ee
:020000040000fa
:0400f80016040000ea
:020000040000fa
:0400fc0016040000e6
:020000040000fa
:0401000016040000e1
:020000040000fa
:0401040016040000dd
:020000040000fa
:0401080016040000d9
:020000040000fa
:04010c0016040000d5
:020000040000fa
:0401100016040000d1
:020000040000fa
:0401140016040000cd
:020000040000fa
:0401180016040000c9
:020000040000fa
:04011c0016040000c5
:020000040000fa
:0401200016040000c1
:020000040000fa
:0401240016040000bd
:020000040000fa
:0401280016040000b9
:020000040000fa
:04012c0016040000b5
:020000040000fa
:0401300016040000b1
:020000040000fa
:0401340016040000ad
:020000040000fa
:0401380016040000a9
:020000040000fa
:04013c0016040000a5
:020000040000fa
:0401400016040000a1
:020000040000fa
:04014400160400009d
:020000040000fa
:040148001604000099
:020000040000fa
:04014c001604000095
:020000040000fa
:040150001604000091
:020000040000fa
:04015400160400008d
:020000040000fa
:040158001604000089
:020000040000fa
:04015c001604000085
:020000040000fa
:040160001604000081
:020000040000fa
:04016400160400007d
:020000040000fa
:040168001604000079
:020000040000fa
:04016c001604000075
:020000040000fa
:040170001604000071
:020000040000fa
:04017400160400006d
:020000040000fa
:040178001604000069
:020000040000fa
:04017c001604000065
:020000040000fa
:040180001604000061
:020000040000fa
:04018400160400005d
:020000040000fa
:040188001604000059
:020000040000fa
:04018c001604000055
:020000040000fa
:040190001604000051
:020000040000fa
:04019400160400004d
:020000040000fa
:040198001604000049
:020000040000fa
:04019c001604000045
:020000040000fa
:0401a0001604000041
:020000040000fa
:0401a400160400003d
:020000040000fa
:0401a8001604000039
:020000040000fa
:0401ac001604000035
:020000040000fa
:0401b0001604000031
:020000040000fa
:0401b400160400002d
:020000040000fa
:0401b8001604000029
:020000040000fa
:0401bc001604000025
:020000040000fa
:0401c0001604000021
:020000040000fa
:0401c400160400001d
:020000040000fa
:0401c8001604000019
:020000040000fa
:0401cc001604000015
:020000040000fa
:0401d0001604000011
:020000040000fa
:0401d400160400000d
:020000040000fa
:0401d8001604000009
:020000040000fa
:0401dc001604000005
:020000040000fa
:0401e0001604000001
:020000040000fa
:0401e40016040000fd
:020000040000fa
:0401e80016040000f9
:020000040000fa
:0401ec0016040000f5
:020000040000fa
:0401f00016040000f1
:020000040000fa
:0401f40016040000ed
:020000040000fa
:0401f80016040000e9
:020000040000fa
:0401fc0016040000e5
:020000040000fa
:0402000016040000e0
:020000040000fa
:0402040016040000dc
:020000040000fa
:0402080016040000d8
:020000040000fa
:04020c0016040000d4
:020000040000fa
:0402100016040000d0
:020000040000fa
:0402140016040000cc
:020000040000fa
:0402180016040000c8
:020000040000fa
:04021c0016040000c4
:020000040000fa
:0402200016040000c0
:020000040000fa
:0402240016040000bc
:020000040000fa
:0402280016040000b8
:020000040000fa
:04022c0016040000b4
:020000040000fa
:0402300016040000b0
:020000040000fa
:0402340016040000ac
:020000040000fa
:0402380016040000a8
:020000040000fa
:04023c0016040000a4
:020000040000fa
:0402400016040000a0
:020000040000fa
:04024400160400009c
:020000040000fa
:040248001604000098
:020000040000fa
:04024c001604000094
:020000040000fa
:040250001604000090
:020000040000fa
:04025400160400008c
:020000040000fa
:040258001604000088
:020000040000fa
:04025c001604000084
:020000040000fa
:040260001604000080
:020000040000fa
:04026400160400007c
:020000040000fa
:040268001604000078
:020000040000fa
:04026c001604000074
:020000040000fa
:040270001604000070
:020000040000fa
:04027400160400006c
:020000040000fa
:040278001604000068
:020000040000fa
:04027c001604000064
:020000040000fa
:040280001604000060
:020000040000fa
:04028400160400005c
:020000040000fa
:040288001604000058
:020000040000fa
:04028c001604000054
:020000040000fa
:040290001604000050
:020000040000fa
:04029400160400004c
:020000040000fa
:040298001604000048
:020000040000fa
:04029c001604000044
:020000040000fa
:0402a0001604000040
:020000040000fa
:0402a400160400003c
:020000040000fa
:0402a8001604000038
:020000040000fa
:0402ac001604000034
:020000040000fa
:0402b0001604000030
:020000040000fa
:0402b400160400002c
:020000040000fa
:0402b8001604000028
:020000040000fa
:0402bc001604000024
:020000040000fa
:0402c0001604000020
:020000040000fa
:0402c400160400001c
:020000040000fa
:0402c8001604000018
:020000040000fa
:0402cc001604000014
:020000040000fa
:0402d0001604000010
:020000040000fa
:0402d400160400000c
:020000040000fa
:0402d8001604000008
:020000040000fa
:0402dc001604000004
:020000040000fa
:0402e0001604000000
:020000040000fa
:0402e40016040000fc
:020000040000fa
:0402e80016040000f8
:020000040000fa
:0402ec0016040000f4
:020000040000fa
:0402f00016040000f0
:020000040000fa
:0402f40016040000ec
:020000040000fa
:0402f80016040000e8
:020000040000fa
:0402fc0016040000e4
:020000040000fa
:0403000016040000df
:020000040000fa
:0403040016040000db
:020000040000fa
:0403080016040000d7
:020000040000fa
:04030c0016040000d3
:020000040000fa
:0403100016040000cf
:020000040000fa
:100400000f0021000eff21000e01880000000000f7
:10041000000020000000e000020032000001200087
:100420002002880014000700020107000000e0001d
:1004300003003a0000002000010020000200370005
:100440000000200001002000810f70000100320038
:100450000f000700000020000000e0000200320052
:1004600000000200000000000a0902000000000075
:100470000040da000000fe00200020000000e00044
:1004800002003200100020009001880000000600e9
:10049000a1028800800478000000eb001f003700f4
:1004a000e284440054a0b4009905ba00e2844400f8
:1004b00054a0b4009906ba00e284440054a0b400e9
:1004c0000006eb00476fde00fd07b200ae018800ba
:1004d000636ce10003003a000ad801000000eb0061
:1004e0000e003700606ce10008003a00004deb00a0
:1004f0000a05e800020039003420ec000af0a000f0
:100500008b05e900f9ff3e00040037006168e10057
:10051000010032000086eb000b00070019c7ba008b
:100520000e04e0001905ba0003003a000a00e000da
:10053000dbff3a0000000600fe07b200ae028800b2
:100540008a047800f5ff37000cd0a300e20f4d00bd
:100550001c00390089027800354dba000a05e80010
:10056000020039003420ec000af0a0008b05e900fd
:100570000f003200254dba000a05e80002003900dc
:100580003420ec000af0a0008b05e90008003200de
:100590000c00e0000600320015cdba000a05e800a4
:1005a000020039003420ec000af0a0008b05e900bd
:1005b0008984e80054a0b4000b00e000e2ff3a0098
:1005c000000006009902ba00055d78008b05e9007d
:1005d000f7ff3200c82ade00055d78008b05e900d0
:1005e000f3ff32000c00e000f1ff320019ddba0029
:1005f000eeff370000a0fe003600f800849fbe002a
:10060000869fbe00881f78003200f8003400f80092
:1006100014002000a4018800140020009401880028
:10062000000000000400fa0000e8a9008000eb00d0
:100630000000eb007c02070018030700008fbe00db
:100640001e0078009e009000cc000700000078009b
:100650000003b000a0118800e0022000a011880073
:1006600002002000031224001e0078009e0090006b
:1006700056010700c1000700000478001e00780042
:100680009e009000bd0007008000780060ff2f00f2
:100690008088b900000044000003b000a011880069
:1006a00002002000832c24001e0078009e00900091
:1006b00046010700b1000700000478000200200096
:1006c000031224001e0078009e0090003f010700e6
:1006d000aa0007008000780060ff2f008088b90022
:1006e000000044000003b000a011880000022000b8
:1006f000a0118800110020000000eb004a02070052
:10070000e6020700008fbe001e0078009e009000e9
:100710009a000700000078000003b000a0118800d4
:10072000e0022000a0118800020020000312240033
:100730001e0078009e009000240107008f00070033
:10074000000478001e0078009e0090008b000700d7
:100750008000780060ff2f008088b900000044000e
:100760000003b000a011880002002000832c2400a8
:100770001e0078009e009000140107007f00070013
:100780000004780002002000031224001e007800fc
:100790009e0090000d01070078000700800078009f
:1007a00060ff2f008088b900000044000003b00003
:1007b000a011880000022000a0118800a0002000e5
:1007c000a011880023e8a8000080fa003400f90096
:1007d0003200f9004f0478004f03be004f02be0004
:1007e0003600f9000080fe00004006003200f800ec
:1007f0003400f800881f780018002000a801880045
:100800001800200098018800000000004f047800c4
:100810000000fa0003e8a90023e8a9000080fa001c
:100820003400f9003200f900004006000040da0010
:100830000000fe0000000500889fbe008a9fbe00e9
:100840008c1f7800c9000700d000330003866c00bd
:100850006450e1002e0032006420e10033003200d9
:100860006150e1002f0032006120e10031003200d0
:1008700085855500eb07b000090020000804200022
:10088000050037000804440089844c000a00310048
:100890000603430087834b000001530081815b0006
:1008a000f8ff33000203be000800a0000804440063
:1008b00089844c00f6ff3900c639dd0083017300de
:1008c00001003200130020008904d1000884d30005
:1008d0000998a300050032000800a7000300a0004b
:1008e0008904d1000884d3008b05e8008904d10075
:1008f0000884d3000001eb000281d20060000700f1
:1009000001f0a1000cf0a70001f0a000a800370042
:100910006420e100aa0032000801be000200be000f
:10092000f7ff37006120e100a50032006000b80049
:10093000f3ff37000000200001f82700f0ff370028
:10094000839f68000100e00002003d00600010008d
:10095000e08018000300e00002003d00600111008b
:10096000e0811900cd0007004f00e00002003b00cd
:1009700060001000e0801800000006000001be00ca
:10098000650007000470a70003f0a1006509b1002d
:10099000160032000d0035006828e1000600350021
:1009a000f0ff2f00f1ff27000300e00013003b00e1
:1009b0000100280000000500000040008180480080
:1009c0008502e900fcff3a0008003700f88f42007a
:1009d00002003c008000eb00000005008100d10017
:1009e0000080d3008502e800fcff3a000300e0002d
:1009f00002003b0060001000e080180000000600cc
:100a00000001be00440007000470a70003f0a1002d
:100a100003f8a30013003a006509b100100032008a
:100a2000090035006928e1000200350001002800b6
:100a30000000050000004000818048008502e900b8
:100a4000fcff3a0000000600f88f42000500350068
:100a50008100d1000080d3008502e800fcff3a004d
:100a6000000006008000eb00000005004f89de005a
:100a700082017800990037006011b800a7003700a4
:100a800081002000618055000b003d000b0020001c
:100a900061fe2f000100e1001d0034008281710021
:100aa000610164008904d1000884d3000000e800db
:100ab000faff3a007100200061006400030070003a
:100ac000020060000900320061044400e0844c0030
:100ad0000988a500050032008b05e8006808e100e0
:100ae00002003a008904d1000884d300f20f2000ec
:100af0000258e10005003d00c75ddd00f907b200c6
:100b00008980750008007800000006000bf82700b7
:100b10008b00780000000500c70ade00f107b20074
:100b2000f50fb20008003200e1cf420002003200af
:100b30000170a00024000500810f70000100320048
:100b40000408050044000500810f700002003a000f
:100b5000140005008502e9000000400081c0480043
:100b6000fcff3b000170a000240005000004be0053
:100b7000e9ff07000003be000405be000200be003e
:100b8000e5ff0700844f7500000006000200be006c
:100b90006450e100050036006420e10002003600e8
:100ba0000968a30001003a000800be000160a0002f
:100bb0004f0678004f05be004f04be00000006003f
:100bc000f0ff2f00f1ff2700f9ff3700889fbe00dc
:100bd0008a9fbe008c1f7800e4ff0700ebff330004
:100be00003866c006450e100240032006420e100c0
:100bf000270032006150e100220032006120e10054
:100c0000210032008b854200eb07b1000134b800af
:100c1000003ab8000804420089844a00013ab8004a
:100c20000030b8008880400009014a000400330009
:100c30000000400081804800020149008b05e90066
:100c4000c909dd008301700001003200130020009b
:100c5000c814de004814dd004709de001200b200af
:100c6000c808de000884700085ff070001f0a100bd
:100c70000cf0a70001f0a000cdff37006120e100db
:100c8000cfff32000801be000200be00f7ff3700b0
:100c90006150e100fcff3a00c9ff37006022b80054
:100ca000060220000000d0008180d2000482d20021
:100cb0008582d2000000a0000202520083825a0006
:100cc000030031000202420083824a000000a100ba
:100cd0000603e900f3ff3a0000000600881f7800d1
:100ce000030478000300e00007003d0060001000ee
:100cf000e080180060011900e081190002003b004b
:100d000001f02d00030037000400070008f0a700e1
:100d100001f0a0004f04780000000600889fbe008c
:100d20008a9fbe000082700004027100048271007c
:100d3000260032000004be000200be006011b800b0
:100d40006b092000950220000182cf000a003900c3
:100d50000541b1000082cf00070039000541b10014
:100d60000982cf00040039000541b1000882cf009c
:100d7000010039000541b100054252001200320065
:100d80000a003b0082817100610164008100d10092
:100d90000080d3008984d3000884d3008b05e80049
:100da0000442e800f7ff3a00070037000804440057
:100db00089844c0000004800818048008b05e900d0
:100dc0000442e900f9ff3a002dff07004f05be007d
:080dd0004f04be000000060004
:020000040000fa
:100dd8000080080002000000c51c09000000000097
:100de8000000000000000600f300200083801000cf
:100df80013002000018009008301d30000f0a70040
:100e08000e07040000000000a17080001007040015
:100e180000000000017080000200a7002007040005
:100e280000000000f2ff2f0083016900818061004b
:100e380022070400000000008180710000f0a70074
:100e48002e07040000000000a1708800300704008d
:100e5800000000000170880000000000000006008b
:100e6800f300200083801000130020000180090097
:100e78008301d30000f0a7004a0704000000000027
:100e8800117180004c0704000000000071708000a0
:100e98000200a7005c07040000000000f2ff2f001a
:100ea80083016900818061005e0704000000000082
:100eb8008180710000f0a7006a07040000000000ac
:100ec800117188006c070400000000007170880030
:100ed8000000000000000600f300200083801000de
:100ee80013002000018009008301d30000f0a7004f
:100ef800880704000000000004718000f57080007d
:100f08008c070400000000006470800055708000a9
:100f18000200a7009e070400000000000482710080
:100f2800f2ff2f008301690085826100a607040093
:100f38000000000085827100f2ff2f008301690024
:100f48000482610000f0a700b4070400000000005c
:100f580004718800f5708800b807040000000000dc
:100f680064708800557088000000000000000600ca
:100f7800f300200083801000130020000180090086
:100f88008301d30000f0a700d2070400000000008e
:100f9800b1708000d40704000000000011708000c8
:100fa8000200a700e407040000000000f2ff2f0081
:100fb8008301690081806100e607040000000000e9
:100fc8008180710000f0a700f20704000000000013
:100fd800b1708800f4070400000000001170880058
:100fe800000000000000060000f0a700040804004c
:100ff80000000000b0708000060804000000000037
:1010080010708000f20020008280400001800900fa
:101018000000d3001200200002006000000006005b
:1010280000f0a700240804000000000022002000af
:1010380081004100411988002608040000000000d2
:10104800411988002023a9000c00090000000000b5
:101058000018800000000600c3e8a8000000060091
:10106800c3e8a9000000060014aea90014cea90028
:1010780015aea90022aea90022cea90023aea90070
:1010880016aea90016cea90017aea800217420003c
:1010980062042000730520008248780083487800a5
:1010a80042c7a900008020009033880090002000eb
:1010b800a033880000602200603688002174200078
:1010c8006204200073052000824878008348780075
:1010d80042c7a80004000900401380000000200057
:1010e80000138800f053200010138800000020002f
:1010f8002013880060c2a90061e2a8000000060071
:1011080001f0a10001d0a10001c0a0008100700081
:101118004013800017aea900411388001000090091
:101128000000000017aea800000006000200fa0048
:10113800000f7800000420009e007800808f500087
:101148000d00360000002800800888001e00780086
:101158008000eb000001be0080a82300810320006e
:10116800f5fd0700000078006008880000e8a90085
:1011780020e8a80023003700000420009e00780023
:10118800808f500010003e001e007800e80f5000cd
:101198000d00360000012800800888001e00780035
:1011a8008000eb000001be001075200071002000d7
:1011b800e1fd0700000078006008880000e8a90049
:1011c80020e8a8000f0037001e007800e80f500044
:1011d8000c003e0000022800800888001e007800ed
:1011e8008000eb000001be00a00e2e0001002000d0
:1011f800d1fd0700000078006008880000e8a90019
:1012080020e8a8000080fa00000006000000fa00ac
:1012180040002000a0708800222eef00120020005d
:101228008000eb000000eb00effe0700120020003a
:101238008000eb000000eb0009ff0700120020000f
:10124800110020000000eb00e7fe0700120020005c
:10125800110020000000eb0001ff0700810c2000b6
:1012680010002000360007006008880000032800ee
:1012780080088800110007004040280000198800f5
:10128800000220004019880020e8a800c3e8a80050
:10129800ffff37000200fa00000f78001e007800f8
:1012a8008000eb00f2fd07000200200003aa2300e3
:1012b80044fe07000080fa00000006000000fa0063
:1012c800113a8000f00b20000081600060042000cb
:1012d8007105200023742000804978008149780036
:1012e8008249780020022000303688000030200033
:1012f80080338800113a8000000520000101700049
:1013080060042000710520002374200080497800c3
:10131800814978008249780050002000c011880077
:10132800000120008011880000002800901188002a
:1013380031e2a8003342a8000080fa00000006004d
:101348000600fa00889fbe00100798002107980041
:101358002e0090008000eb00c5fd07000001be00d4
:1013680000a22e0001a6240031fd07000004be00e3
:101378001e009000cf80de00bafd07000001be000d
:101388000800be002afd07009bfd0700000f78003b
:101398001e0078004f04be000080fa00000006001e
:020000040000fa
:04af3000f8ff000026
:020000040000fa
:04af3800fbff00001b
:020000040000fa
:04af40009fff00006f
:00000001FF
