:020000040000fa
:080000000002040000000000f2
:020000040000fa
:0400080050030000a1
:020000040000fa
:04000c00500300009d
:020000040000fa
:040010005003000099
:020000040000fa
:040014005003000095
:020000040000fa
:040018005003000091
:020000040000fa
:04001c00500300008d
:020000040000fa
:040020005003000089
:020000040000fa
:040024005003000085
:020000040000fa
:040028005003000081
:020000040000fa
:04002c00500300007d
:020000040000fa
:040030005003000079
:020000040000fa
:040034005003000075
:020000040000fa
:040038005003000071
:020000040000fa
:04003c00500300006d
:020000040000fa
:040040005003000069
:020000040000fa
:04004400fa020000bc
:020000040000fa
:040048005003000061
:020000040000fa
:04004c00500300005d
:020000040000fa
:040050005003000059
:020000040000fa
:040054005003000055
:020000040000fa
:040058005003000051
:020000040000fa
:04005c00500300004d
:020000040000fa
:040060005003000049
:020000040000fa
:040064005003000045
:020000040000fa
:040068005003000041
:020000040000fa
:04006c00500300003d
:020000040000fa
:040070005003000039
:020000040000fa
:040074005003000035
:020000040000fa
:040078005003000031
:020000040000fa
:04007c00500300002d
:020000040000fa
:040080005003000029
:020000040000fa
:040084005003000025
:020000040000fa
:040088005003000021
:020000040000fa
:04008c00500300001d
:020000040000fa
:040090005003000019
:020000040000fa
:040094005003000015
:020000040000fa
:040098005003000011
:020000040000fa
:04009c00500300000d
:020000040000fa
:0400a0005003000009
:020000040000fa
:0400a4005003000005
:020000040000fa
:0400a8005003000001
:020000040000fa
:0400ac0050030000fd
:020000040000fa
:0400b00050030000f9
:020000040000fa
:0400b40050030000f5
:020000040000fa
:0400b80050030000f1
:020000040000fa
:0400bc0050030000ed
:020000040000fa
:0400c00050030000e9
:020000040000fa
:0400c40050030000e5
:020000040000fa
:0400c80050030000e1
:020000040000fa
:0400cc0050030000dd
:020000040000fa
:0400d00050030000d9
:020000040000fa
:0400d40050030000d5
:020000040000fa
:0400d80050030000d1
:020000040000fa
:0400dc0050030000cd
:020000040000fa
:0400e00050030000c9
:020000040000fa
:0400e40050030000c5
:020000040000fa
:0400e80050030000c1
:020000040000fa
:0400ec0050030000bd
:020000040000fa
:0400f00050030000b9
:020000040000fa
:0400f40050030000b5
:020000040000fa
:0400f80050030000b1
:020000040000fa
:0400fc0050030000ad
:020000040000fa
:0401000050030000a8
:020000040000fa
:0401040050030000a4
:020000040000fa
:0401080050030000a0
:020000040000fa
:04010c00500300009c
:020000040000fa
:040110005003000098
:020000040000fa
:040114005003000094
:020000040000fa
:040118005003000090
:020000040000fa
:04011c00500300008c
:020000040000fa
:040120005003000088
:020000040000fa
:040124005003000084
:020000040000fa
:040128005003000080
:020000040000fa
:04012c00500300007c
:020000040000fa
:040130005003000078
:020000040000fa
:040134005003000074
:020000040000fa
:040138005003000070
:020000040000fa
:04013c00500300006c
:020000040000fa
:040140005003000068
:020000040000fa
:040144005003000064
:020000040000fa
:040148005003000060
:020000040000fa
:04014c00500300005c
:020000040000fa
:040150005003000058
:020000040000fa
:040154005003000054
:020000040000fa
:040158005003000050
:020000040000fa
:04015c00500300004c
:020000040000fa
:040160005003000048
:020000040000fa
:040164005003000044
:020000040000fa
:040168005003000040
:020000040000fa
:04016c00500300003c
:020000040000fa
:040170005003000038
:020000040000fa
:040174005003000034
:020000040000fa
:040178005003000030
:020000040000fa
:04017c00500300002c
:020000040000fa
:040180005003000028
:020000040000fa
:040184005003000024
:020000040000fa
:040188005003000020
:020000040000fa
:04018c00500300001c
:020000040000fa
:040190005003000018
:020000040000fa
:040194005003000014
:020000040000fa
:040198005003000010
:020000040000fa
:04019c00500300000c
:020000040000fa
:0401a0005003000008
:020000040000fa
:0401a4005003000004
:020000040000fa
:0401a8005003000000
:020000040000fa
:0401ac0050030000fc
:020000040000fa
:0401b00050030000f8
:020000040000fa
:0401b40050030000f4
:020000040000fa
:0401b80050030000f0
:020000040000fa
:0401bc0050030000ec
:020000040000fa
:0401c00050030000e8
:020000040000fa
:0401c40050030000e4
:020000040000fa
:0401c80050030000e0
:020000040000fa
:0401cc0050030000dc
:020000040000fa
:0401d00050030000d8
:020000040000fa
:0401d40050030000d4
:020000040000fa
:0401d80050030000d0
:020000040000fa
:0401dc0050030000cc
:020000040000fa
:0401e00050030000c8
:020000040000fa
:0401e40050030000c4
:020000040000fa
:0401e80050030000c0
:020000040000fa
:0401ec0050030000bc
:020000040000fa
:0401f00050030000b8
:020000040000fa
:0401f40050030000b4
:020000040000fa
:0401f80050030000b0
:020000040000fa
:0401fc0050030000ac
:020000040000fa
:0402000050030000a7
:020000040000fa
:0402040050030000a3
:020000040000fa
:04020800500300009f
:020000040000fa
:04020c00500300009b
:020000040000fa
:040210005003000097
:020000040000fa
:040214005003000093
:020000040000fa
:04021800500300008f
:020000040000fa
:04021c00500300008b
:020000040000fa
:040220005003000087
:020000040000fa
:040224005003000083
:020000040000fa
:04022800500300007f
:020000040000fa
:04022c00500300007b
:020000040000fa
:040230005003000077
:020000040000fa
:040234005003000073
:020000040000fa
:04023800500300006f
:020000040000fa
:04023c00500300006b
:020000040000fa
:040240005003000067
:020000040000fa
:040244005003000063
:020000040000fa
:04024800500300005f
:020000040000fa
:04024c00500300005b
:020000040000fa
:040250005003000057
:020000040000fa
:040254005003000053
:020000040000fa
:04025800500300004f
:020000040000fa
:04025c00500300004b
:020000040000fa
:040260005003000047
:020000040000fa
:040264005003000043
:020000040000fa
:04026800500300003f
:020000040000fa
:04026c00500300003b
:020000040000fa
:040270005003000037
:020000040000fa
:040274005003000033
:020000040000fa
:04027800500300002f
:020000040000fa
:04027c00500300002b
:020000040000fa
:040280005003000027
:020000040000fa
:040284005003000023
:020000040000fa
:04028800500300001f
:020000040000fa
:04028c00500300001b
:020000040000fa
:040290005003000017
:020000040000fa
:040294005003000013
:020000040000fa
:04029800500300000f
:020000040000fa
:04029c00500300000b
:020000040000fa
:0402a0005003000007
:020000040000fa
:0402a4005003000003
:020000040000fa
:0402a80050030000ff
:020000040000fa
:0402ac0050030000fb
:020000040000fa
:0402b00050030000f7
:020000040000fa
:0402b40050030000f3
:020000040000fa
:0402b80050030000ef
:020000040000fa
:0402bc0050030000eb
:020000040000fa
:0402c00050030000e7
:020000040000fa
:0402c40050030000e3
:020000040000fa
:0402c80050030000df
:020000040000fa
:0402cc0050030000db
:020000040000fa
:0402d00050030000d7
:020000040000fa
:0402d40050030000d3
:020000040000fa
:0402d80050030000cf
:020000040000fa
:0402dc0050030000cb
:020000040000fa
:0402e00050030000c7
:020000040000fa
:0402e40050030000c3
:020000040000fa
:0402e80050030000bf
:020000040000fa
:0402ec0050030000bb
:020000040000fa
:0402f00050030000b7
:020000040000fa
:0402f40050030000b3
:020000040000fa
:0402f80050030000af
:020000040000fa
:0402fc0050030000ab
:020000040000fa
:0403000050030000a6
:020000040000fa
:0403040050030000a2
:020000040000fa
:04030800500300009e
:020000040000fa
:04030c00500300009a
:020000040000fa
:040310005003000096
:020000040000fa
:100400000f0021000eff21000e01880000000000f7
:10041000000020000000e000020032000001200087
:1004200020028800140007009f0007000000e00081
:1004300003003a0000002000010020000200370005
:100440000000200001002000810f70000100320038
:100450000f000700000020000000e0000200320052
:100460000000020000000000b205020000000000d1
:100470000040da000000fe00200020000000e00044
:1004800002003200100020009001880000000600e9
:10049000a1028800800478000000eb001f003700f4
:1004a000e284440054a0b4009905ba00e2844400f8
:1004b00054a0b4009906ba00e284440054a0b400e9
:1004c0000006eb00476fde00fd07b200ae018800ba
:1004d000636ce10003003a000ad801000000eb0061
:1004e0000e003700606ce10008003a00004deb00a0
:1004f0000a05e800020039003420ec000af0a000f0
:100500008b05e900f9ff3e00040037006168e10057
:10051000010032000086eb000b00070019c7ba008b
:100520000e04e0001905ba0003003a000a00e000da
:10053000dbff3a0000000600fe07b200ae028800b2
:100540008a047800f5ff37000cd0a300e20f4d00bd
:100550001c00390089027800354dba000a05e80010
:10056000020039003420ec000af0a0008b05e900fd
:100570000f003200254dba000a05e80002003900dc
:100580003420ec000af0a0008b05e90008003200de
:100590000c00e0000600320015cdba000a05e800a4
:1005a000020039003420ec000af0a0008b05e900bd
:1005b0008984e80054a0b4000b00e000e2ff3a0098
:1005c000000006009902ba00055d78008b05e9007d
:1005d000f7ff3200c82ade00055d78008b05e900d0
:1005e000f3ff32000c00e000f1ff320019ddba0029
:1005f000eeff370000a0fe003600f800849fbe002a
:10060000869fbe003200f8003400f800140020007d
:10061000a40188001400200094018800000000005c
:100620000400fa0000e8a9008000eb0000002800a8
:10063000d3000700000f780000f020001e0f6000bc
:100640000000eb0010079800080037001e0078003b
:10065000cf00de00008040000080d100000f780055
:100660001e0090000000e800100798001e00900097
:10067000e70f5000f5ff34001e007800b0708800ce
:100680000080fa003400f9003200f9004f03be0088
:100690004f02be003600f9000080fe000040060058
:1006a0000040da000000fe0000000500839f6800a3
:1006b0000100e00002003d0060001000e080180032
:1006c0000300e00002003d0060011100e08119001c
:1006d000050007004f00e00002003b006000100032
:1006e000e0801800000006006022b800060220002a
:1006f0000000d0008180d2000482d2008582d20026
:100700000000a0000202520083825a000300310060
:100710000202420083824a000000a1000603e900b1
:08072000f3ff3a00000006009f
:020000040000fa
:100728000080080002000000c51c0900000000004d
:100738000000000000000600f30020008380100085
:1007480013002000018009008301d30000f0a700f6
:10075800b603040000000000a1708000b803040084
:1007680000000000017080000200a700c803040018
:1007780000000000f2ff2f00830169008180610002
:10078800ca030400000000008180710000f0a70087
:10079800d603040000000000a1708800d8030400fc
:1007a8000000000001708800000000000000060042
:1007b800f30020008380100013002000018009004e
:1007c8008301d30000f0a700f2030400000000003a
:1007d80011718000f40304000000000071708000b3
:1007e8000200a7000404040000000000f2ff2f002c
:1007f80083016900818061000a0404000000000090
:1008080081807100424028000219880000f0a7008a
:100818001604040000000000117188001804040088
:100828000000000071708800000000000000060051
:10083800f3002000838010001300200001800900cd
:100848008301d30000f0a700340404000000000076
:1008580004718000f5708000380404000000000076
:1008680064708000557080000200a7004a040400ec
:100878000000000004827100f2ff2f00830169006c
:100888008582610052040400000000008582710026
:10089800f2ff2f00830169000482610000f0a700c5
:1008a800600404000000000004718800f5708800ee
:1008b800640404000000000064708800557088001b
:1008c8000000000000000600f300200083801000f4
:1008d80013002000018009008301d30000f0a70065
:1008e8007e04040000000000b17080008004040051
:1008f80000000000117080000200a70090040400ae
:1009080000000000f2ff2f00830169008180610070
:1009180092040400000000008180710000f0a7002c
:100928009e04040000000000b1708800a0040400c8
:1009380000000000117088000000000000000600a0
:1009480000f0a700b004040000000000b0708000b0
:10095800b20404000000000010708000f2002000c3
:1009680082804000018009000000d30012002000ae
:10097800020060000000060000f0a700d004040098
:100988000000000022002000810041004119880079
:10099800d204040000000000411988002023a900a7
:1009a8000018800000000600c3e8a8000000060048
:1009b800c3e8a9000000060014aea90014cea900df
:1009c80015aea90022aea90022cea90023aea90027
:1009d80016aea90016cea90017aea80021742000f3
:1009e800620420007305200082487800834878005c
:1009f80042c7a900008020009033880090002000a2
:100a0800a03388000060220060368800217420002e
:100a1800620420007305200082487800834878002b
:100a280042c7a8000400090040138000000020000d
:100a380000138800f05320001013880000002000e5
:100a48002013880060c2a90061e2a8000000060027
:100a580001f0a10001d0a10001c0a0008100700038
:100a68004013800017aea900411388001000090048
:100a78000000000017aea800000006000200fa00ff
:100a8800000f7800000420009e007800808f50003e
:100a98000d00360000002800800888001e0078003d
:100aa8008000eb000001be0080a823008103200025
:100ab800fcfe0700000078006008880000e8a90034
:100ac80020e8a80023003700000420009e007800da
:100ad800808f500010003e001e007800e80f500084
:100ae8000d00360000012800800888001e007800ec
:100af8008000eb000001be0010752000710020008e
:100b0800e8fe0700000078006008880000e8a900f7
:100b180020e8a8000f0037001e007800e80f5000fa
:100b28000c003e0000022800800888001e007800a3
:100b38008000eb000001be00a00e2e000100200086
:100b4800d8fe0700000078006008880000e8a900c7
:100b580020e8a8000080fa00000006000200fa0061
:100b6800120020008000eb0000002800f2fe0700c1
:100b7800120020008000eb00000028000cff070096
:100b88000000eb00000f7800090037000001eb00bf
:100b98009e0078000000eb00e7fe07000001eb0074
:100ba8009e0078000000eb0001ff07001e0fe80020
:100bb8001e007800e30f5000f4ff34007aff0700ae
:100bc800803e2000adff070010002000d4fe070083
:040bd800fdff3700e6
:020000040000fa
:04af3000f8ff000026
:020000040000fa
:04af3800fbff00001b
:020000040000fa
:04af40009fff00006f
:00000001FF
